:020000040800F2
:10000000401E00203133000891330008953300086A
:10001000993300089D330008A13300080000000058
:100020000000000000000000000000009313000822
:10003000A5330008000000004D1300089F0D0008C4
:10004000A9330008AD330008B1330008B533000808
:10005000B9330008BD330008C1330008C5330008B8
:10006000C9330008CD330008D1330008D533000868
:10007000D9330008DD330008E1330008E533000818
:10008000E9330008ED330008F1330008F5330008C8
:10009000F9330008FD330008013400080534000876
:1000A000093400080D340008113400081534000824
:1000B000193400081D3400082134000825340008D4
:1000C000293400082D340008313400083534000884
:1000D000393400083D340008413400084534000834
:1000E000493400084D340008513400082DE9F34F1D
:1000F00085B016001F00119C129D002D20D0002CF1
:100100001ED0A8465FF050095FF0000AC346524671
:100110004946584600F072FDC8F83040022088F881
:100120004D0000200390CDF808801398019010989E
:1001300000903B0032000699059800F07DF801E040
:100140005FF00008404607B0BDE8F08F2DE9F841A8
:1001500085B005000E00170098460020049004A802
:1001600003900E9802900D9801900C9800904346D1
:100170003A0031002800FFF7B9FF0400002C02D03C
:10018000200000F0B1F8049806B0BDE8F0812DE938
:10019000F14F84B00E0017009846B80000F061FDE2
:1001A0000500002D15D0502000F05BFD0400002C50
:1001B0000BD05FF050095FF0000AA3465246494653
:1001C000584600F01BFD256304E0280000F055FDB3
:1001D00000E00024002C0FD0002084F84D00002007
:1001E000039002940F9801900E98009043463A00B5
:1001F0003100049800F020F8200005B0BDE8F08F31
:100200002DE9FC4105000E00170098460998019061
:100210000898009043463A0031002800FFF7B7FFE6
:100220000400002C04D0200000F05EF8012001E062
:100230005FF0FF30BDE8F6812DE9F94F81B00C0089
:1002400016000C9F0D9DDDF83880B00000905FF027
:10025000A50BD8F830A05A460099504600F0CEFCC5
:10026000D8F8300000EB8600B0F1040A5FEADA0A41
:100270005FEACA0A002C14D000208146B9F1100FA1
:100280000CD214F8090008EB090181F8340014F8C5
:100290000900002802D019F10109EFE7002088F8D1
:1002A0004300052F01D304200700C8F82C7018F173
:1002B00004000021016118F1180000210161C8F853
:1002C0001080D7F10500C8F81800C8F82480029AF9
:1002D0000199504600F01CFDC8F80000002D01D027
:1002E000C5F80080BDE8F78F70B5040000F040FD50
:1002F000DFF8DC120868401C0860DFF8D852286874
:10030000002806D12C60086801280DD100F069FB97
:100310000AE0DFF8C4020068002805D1E06A296815
:10032000C96A884200D32C60DFF8B0020168491C1A
:100330000160DFF8AC020168E26A914201D2E16A31
:1003400001601C20DFF89C12E26A42430A445668AE
:10035000A660B268E260221DB3685A60221DB260D6
:10036000E26A42430A446261E26A4243E36A00FB92
:1003700003F00858401C885000F006FDDFF85802D2
:10038000006800280DD02868C06AE16A884208D257
:100390005FF08050DFF8C0130860BFF34F8FBFF3EA
:1003A0006F8F70BD2DE9F0418AB001240025002631
:1003B000102E09DA06A8DFF81417895D8155805DD3
:1003C000002801D0761CF3E70027012F28DA0FF26E
:1003D000ED500500002004900020039005AA03A919
:1003E00004A800F0D6FBDFF8E88604980290039892
:1003F0000190002000900023059A06A92800FFF72D
:10040000A5FE48F8270058F82700002802D0012050
:10041000040001E000200400002C01D07F1CD4E780
:1004200020000AB0BDE8F08110B5FFF7BBFF040063
:10043000012C02D100F0D2FC0400012C15D1BF2008
:1004400080F31188BFF34F8FBFF36F8F5FF0FF30E2
:10045000DFF8801608600120DFF87C1108600020BA
:10046000DFF8F012086000F06BFCDFF86406DFF8DC
:100470006806006810BDDFF8C0050168491C01600E
:1004800070472DE9F0410025002600F071FC00279F
:10049000DFF8A4050168491E01600068002840F0EB
:1004A0008B804B480068002800F08680DFF83C1302
:1004B0000868002854D0C868C0680500A86A296A7E
:1004C000EA699160E9692A6A5160416815F1180288
:1004D000914201D1296A41600021A9620168491E47
:1004E00001606869E968AA689160A968EA68516072
:1004F00041682A1D914201D1E9684160002169618A
:100500000168491E016036480168EA6A914201D2D9
:10051000E96A016033481C21EA6A4A43024452688E
:10052000AA609368EB602B1D946863602B1D936039
:10053000EB6A4B4303446B61EB6A4B43EC6A01FB90
:1005400004F14158491CC15022480068C06AE96A58
:100550008842ABD20120DFF8241541F82700A5E737
:10056000002D01D000F0A1FADFF87085D8F8004026
:10057000002C0ED000F038F8002804D00120DFF85D
:10058000FC1441F82700641E002CF3D10020C8F8A9
:100590000000DFF8E80450F8270000280CD0012004
:1005A00006000C4800685FF08050DFF8AC1108606E
:1005B000BFF34F8FBFF36F8F00F0E6FB3000BDE855
:1005C000F081DFF8900100687047014800687047CB
:1005D000F0150020E0150020FC1500200C1600206E
:1005E000F81500201C1200202DE9F0410027DFF84B
:1005F00048040068002840F0A58056480468641C40
:100600000460002C0ED17748D0F8008076490A6843
:100610000260C1F80080DFF8C8040168491C01606D
:1006200000F043FADFF8AC140868844275D36D4AD1
:1006300010680068002803D15FF0FF3008606CE0AC
:100640001068C068C068050068680600B44201D23E
:100650000E6062E06869EA68AB689A60AA68EB6855
:100660005A6042682B1D9A4201D1EA68426000221A
:100670006A610268521E0260A86A002812D0A86A45
:100680002A6AEB699A60EA692B6A5A60426815F136
:1006900018039A4201D12A6A42600022AA620268C3
:1006A000521E0260DFF83C040268EB6A9A4201D2F3
:1006B000EA6A0260DFF830041C22EB6A5343034409
:1006C0005B68AB60D3F808C0C5F80CC015F1040C2A
:1006D000D3F808E0CEF804C015F1040CC3F808C044
:1006E000D5F82CC002FB0CFC8444C5F814C0D5F826
:1006F0002CC002FB0CFCD5F82CE002FB0EF2825859
:10070000521C40F80C20DFF8E4030068C06AEA6A73
:1007100090428CD20120070089E7DFF8CC13DFF884
:10072000CC030068C26A1C2042438858022801D3C7
:1007300001200700DFF844030068002807D00120EB
:10074000070004E0DFF894030168491C01603800E9
:10075000BDE8F081F415002004ED00E010B4DFF8EE
:10076000D8020068002804D00120DFF810130860C8
:1007700025E00020DFF804130860DFF868130A683A
:100780001C23DFF8644303FB02F02058002801D14A
:10079000521EF5E703FB02F304EB030043685B68BA
:1007A0004360436810F10804A34201D1C368436069
:1007B000DFF8FC334068C06818600A60186810BC35
:1007C000704738B504000D00DFF8E403006810F14D
:1007D0001801200000F0D7FC0121280000F088F962
:1007E00031BD0000E4150020E8150020DC140020D5
:1007F00070B505000E0014006868DFF8B4130A68CD
:10080000D06182680B681A620A68183283685A607D
:100810000A681832826009688D622968491C29605B
:10082000002C02D05FF0FF3006002100300000F005
:100830005FF970BD70B40100C868C268906A136A3D
:10084000D469A360D369146A6360436812F1180421
:10085000A34201D1136A43600023936203685B1EC5
:10086000036075480068002835D15069D3689468E2
:10087000A3609368D46863604368141DA34201D1E8
:10088000D36843600023536103685B1E0360DFF895
:1008900054020368D46AA34201D2D36A0360DFF82A
:1008A00048021C23D46A5C43044464689460A568CD
:1008B000D560151DA6687560151DA560D56A5D43D8
:1008C00005445561D56A5D43D66A03FB06F3C358F8
:1008D0005B1C435110E0DFF8DC325868D06184685B
:1008E000146212F1180485686C6012F118048460B7
:1008F00093621C68641C1C60DFF8F0010068C06A29
:10090000D36A984205D201200123DFF8AC4223606C
:1009100000E0002070BC7047DFF8C4110968016076
:10092000DFF898120968416070472DE9F041040032
:100930000D0000F01DFADFF8840206686768F71BF7
:10094000DFF8A811086890F84E00002806D00020B3
:10095000096881F84E005FF0010824E0286810F172
:10096000010F02D15FF000081DE0DFF854020068BB
:100970002168884207D06068864204D35FF001088E
:10098000002028600FE02868874208D22868C01B32
:1009900028602000FFF7C0FF5FF0000803E00020A0
:1009A00028605FF0010800F0EFF94046BDE8F081F3
:1009B0000120DFF8041208607047000010B5040041
:1009C00000F03CF8DFF8200100680228F8D35FF05F
:1009D0008050DFF8F0110860BFF34F8FBFF36F8FC7
:1009E000EEE770B50024052C09D2DFF8FC001C21CD
:1009F00001FB04F1084400F0B3FB641CF3E7DFF8EB
:100A0000C851280000F0ACFBDFF8C061300000F0F6
:100A1000A7FBDFF8A00100F0A3FBDFF8B40100F0B2
:100A20009FFBDFF8B00100F09BFBDFF8AC01056035
:100A3000DFF8A801066070BD1816002038B5DFF891
:100A4000A0512868002817D000F092F9DFF8800143
:100A5000C068C0680400201D00F0B0FBDFF884010E
:100A60000168491E01602868401E286000F08CF96A
:100A7000200000F005F8E2E731BD00000416002078
:100A800010B5040094F84D00002806D1206B00F04A
:100A9000F4F8200000F0F1F806E094F84D00012889
:100AA00002D1200000F0E9F810BDDFF82C11086831
:100AB0000068002804D15FF0FF300649086004E0B8
:100AC0000868C06800680349086070478033000800
:100AD0001416002010160020D80400200016002054
:100AE00008160020F81500201C120020E015002038
:100AF0002DE9F04705000C00304807683648D0F86B
:100B000000803648D0F80090DFF8A4A00020DAF882
:100B1000001081F84E00DAF80000001D00F04EFBD6
:100B200015F1010F1AD1002C18D02A484168DAF8C3
:100B3000002091608A68DAF80030DA60DAF8002084
:100B4000121D8B685A60DAF80020121D8A60DAF8EC
:100B5000002050610268521C026018E0E81906008B
:100B6000DAF800004660BE4206D2DAF80000011D45
:100B7000484600F008FB0AE0DAF80000011D404694
:100B800000F001FB184801688E4200D20660BDE803
:100B9000F087164B0360164B0B6080231360704781
:100BA000144B0360144B0B608023136070470000EC
:100BB000E0150020DC14002004160020F4150020AD
:100BC0000816002004ED00E0A4140020C01400204A
:100BD000F814002014150020E4150020E81500206A
:100BE000EC150020F0150020101600200413002042
:100BF0007C0C0020541300207C0E002062F30F2296
:100C000062F31F42401810F0030308D0C91A1FD323
:100C1000DB0748BF00F8012D28BF20F8022D130084
:100C200030B414461546103928BF20E93C00FAD8E4
:100C3000490728BF20E90C0048BF40F8042D89006F
:100C400028BF20F8022D48BF00F8012D30BC7047A6
:100C5000C91818BF00F8012DCB0728BF00F8012DD7
:100C6000704738B50400FFF706FC200000F0BAFA20
:100C70000500FFF706FC280032BD10B50400002C6B
:100C800006D0FFF7F8FB200000F04AFBFFF7F9FB66
:100C900010BDF0B40246106895681318506803EB55
:100CA0005004C00748BF4D44A3422DD013F8016B38
:100CB00016F0030004BF13F8010BC01C31090F2903
:100CC00007D113F8011B0F3103E013F8017B05F87E
:100CD000017B401EF9D10029E6D013F8010BC6F3C1
:100CE0008106032E08BF13F8016B00EB062040427B
:100CF00028440026B71E8F421EBF10F8017B05F85E
:100D0000017B761CF6D1CFE7F0BC02F10C007047F6
:100D1000001F5FF080730360001F4B085B000360DF
:100D2000001F0FF20D030360143802602038704773
:100D3000BF2080F31188BFF34F8FBFF36F8FFEE7A3
:100D400080B5214800682148016851F47F010160A5
:100D5000016851F07F41016000201D49086000F0EA
:100D6000E1FA00201B49086000F023FB002002BDCF
:100D7000BF2080F31188BFF34F8FBFF36F8F1548EB
:100D80000168491C0160704712480168491E0160F2
:100D90000068002802D1002080F31188704780B5D8
:100DA000BF2080F31188BFF34F8FBFF36F8FFFF722
:100DB0001BFC002803D05FF080500749086000202A
:100DC00080F3118801BD000008ED00E020ED00E097
:100DD0001CED00E06804002004ED00E038B586B0AA
:100DE000002400F088F9DFF84C03006800281ED0CA
:100DF000002004900020039005AA03A904A8FFF78F
:100E0000CFFEDFF834530498029003980190042039
:100E100000900023059ADFF824130FF28100FFF7FA
:100E200095F928602868002801D0012004002000DE
:100E300007B030BD70B504000D0016002B00320065
:100E4000A1694919200000F093F8002805D0A06995
:100E500045192000216A8847F0E770BD70B504008D
:100E60000D00DFF8DC020068C068C668301D00F0C5
:100E7000A5F996F82400400705D52A002100300086
:100E8000FFF7D8FF05E096F8240010F0FE0086F882
:100E900024003000316A884770BD000038B5040076
:100EA000684600F03FF805000099280000F003F8BC
:100EB00000F086F8F4E77CB505000C00FFF7DBFADC
:100EC000684600F042F806000098002827D1002C60
:100ED00008D1AE4206D3FFF7D4FA31002800FFF75D
:100EE000BDFF1EE0002C07D096480068006800286F
:100EF00001D1012400E000242200A91B8D480068D4
:100F000000F033FCFFF7BDFA00280AD15FF08050F3
:100F10008D490860BFF34F8FBFF36F8F01E0FFF77C
:100F2000B0FA73BD0100864A10680068002801D13C
:100F3000012000E0002008600868002803D1106844
:100F4000C068006800E00020704770B50400FFF73B
:100F500038FB05007D4E3068854204D200F0B5F8BC
:100F60000120206001E0002020603560280070BD75
:100F70002DE9F04104000D0016001F005FF000088D
:100F800065602461AE420CD3F01BA169884202D394
:100F90000120804611E0211D6A48006800F0F3F846
:100FA0000BE0BE4204D2BD4202D30120804604E0E1
:100FB000211D6348006800F0E6F84046BDE8F08176
:100FC00078B585B06846102100F024FC00226946FF
:100FD0005848006800F091FA002874D00098002862
:100FE00004D501AEB1687068326890470098002857
:100FF000ECD4029804006069002802D0201D00F0A3
:10100000DDF804A8FFF7A1FF0500009801280DD026
:1010100058D3032830D009D3052844D033D3072828
:1010200004D003D309282ED026D34BE094F8240013
:1010300050F0010084F82400019B2A000199A06966
:1010400041182000FFF794FF002814D094F82400E2
:10105000400707D52A000199A06941182000FFF731
:10106000E9FE05E094F8240010F0FE0084F8240066
:101070002000216A8847A9E794F8240010F0FE00B8
:1010800084F82400A2E794F8240050F0010084F8CA
:1010900024000198A0612B002A00A16949192000B1
:1010A000FFF766FF92E794F82400800703D420003E
:1010B000FFF7E3FD05E094F8240010F0FE0084F84B
:1010C000240083E782E706B070BD10B51C490868AC
:1010D0000068002809D00868C068006804005FF054
:1010E000FF312000FFF7BAFEF0E70868154A1368E1
:1010F0000B60106010BD7CB5FFF73AFE0D4C206808
:10110000002814D1124D280000F02AF8114E3000AA
:1011100000F026F80A4805600A48066000200090A2
:101120000D4B0E4A10210A2000F0A5F92060FFF7B0
:101130002BFE73BD241600202816002088330008DB
:101140001C1600202016002004ED00E02C160020C4
:10115000301500204C150020A81200207C11002022
:1011600010F1080141605FF0FF31816010F108016A
:10117000C16010F10801016100214161002181611C
:1011800000210160704710B40B6813F1010F01D109
:10119000026907E010F1080254682468A34201D3F1
:1011A0005268F9E754684C604C68A1608A605160ED
:1011B00008610468641C046010BC70470100086981
:1011C0008A684B689A604A688B685A6042688A42AB
:1011D00001D18A68426000220A610268521E0260E0
:1011E0000068704710B50446AFF30080204600F059
:1011F00005F80446AFF30080204610BDF8B500F1B5
:101200000F04E408E400A0422BD2082C04D20824E6
:1012100002E0083000F047F8DFF8002113681900F9
:1012200005D1002007E00568A5420DD2011D086820
:101230000028F8D11868111D00E0191D0B688342C1
:101240000BD01D68A542F8D359B10B68186808384F
:10125000A04208D2586808600FE000F0DFFA0028CA
:10126000D7D10020F2BD181908601D1D58682851FB
:101270001E680F68361B3E601C60096800291DBF90
:1012800048680028081D0020106003F10800F2BD26
:1012900010B5040006D0AFF30080204600F003F83C
:1012A000AFF3008010BD002800D1704770B4A0F1EA
:1012B00008021368072B2ED913F0070F2BD1DFF884
:1012C0005C40616809B18A4203D25160626015E0F6
:1012D0000146486808B19042FAD308680E18B24235
:1012E00019D3964203D11B180B600A4606E04868E2
:1012F00010B1134498420ED350604A60506850B108
:101300001368D518854206D1002626600168CB18DF
:1013100013604068506070BC70470000801500206A
:10132000FFF7B6BF0548002101600021044A1160A3
:101330000449054A116007210160704710E000E090
:1013400018E000E0FF70020014E000E0EFF3098015
:10135000BFF36F8F1D4B1A6820E9F00F106008B5BE
:101360004FF0BF0080F31188BFF34F8FBFF36F8F33
:10137000FFF7F4F94FF0000080F31188BDE8084052
:1013800019680868B0E8F00F80F30988BFF36F8F21
:1013900070470E4B19680868B0E8F00F80F30988B1
:1013A000BFF36F8F4FF0000080F311884EF00D0EE9
:1013B000704707480068006880F3088862B661B625
:1013C000BFF34F8FBFF36F8F00DF0000E0150020E9
:1013D00008ED00E0F8B506000C0001273500002DEF
:1013E00045D0E86C002842D05FF0FF30E96CB0FBDC
:1013F000F1F0296D88423AD3FFF7BAFC2968EA6C0C
:10140000286D424301EB0200A8600020A864286810
:1014100068602968EA6C521E286D424301EB0200A5
:10142000E8605FF0FF3085F8540085F85500002C27
:1014300012D12869002817D015F11000FFF7FAF92A
:10144000002811D05FF08050DFF8B8110860BFF3BA
:101450004F8FBFF36F8F07E015F11000FFF780FE8D
:1014600015F12C00FFF77CFEFFF78EFC01E0002059
:1014700007003800F2BD2DE9F84307000D00140005
:101480001E00DDF820805FF00009002F16D0002E2E
:1014900014D0002C01D0002D10D0002C01D1002D33
:1014A0000CD1B146012089F85600CDF80090434692
:1014B000DBB222002900380000F003F84846BDE8FE
:1014C000F2832DE9F04105000C0016001F00DDF845
:1014D0001880002C02D1C8F8008001E0C8F8006034
:1014E000C8F84C50C8F8504001214046FFF772FF41
:1014F0000020C8F85800BDE8F0812DE9F64182B01F
:1015000006000F000024B046FFF732FCD8F8485020
:10151000002D1CD03900404600F0BAF8681EC8F80B
:101520004800D8F8100000280DD018F11000FFF77F
:1015300081F9002807D05FF0805032490860BFF37E
:101540004F8FBFF36F8FFFF71FFC012056E003980A
:10155000002803D1FFF718FC00204FE0002C04D135
:101560006846FFF7D9F901200400FFF70DFCFEF7EC
:1015700082FFFFF7FDFB98F9540010F1010F02D133
:10158000002088F8540098F9550010F1010F02D19D
:10159000002088F85500FFF7F7FB03A96846FFF71E
:1015A000C4F900281FD1404600F0D1F8002814D01B
:1015B000039918F12C00FFF704F9404600F083F876
:1015C000FEF75FFF00289FD15FF080500D49086053
:1015D000BFF34F8FBFF36F8F96E7404600F073F86D
:1015E000FEF74FFF90E7404600F06DF8FEF749FF29
:1015F000404600F0ACF8002886D0002004B0BDE8DA
:10160000F081000004ED00E02DE9F84F06000F0026
:1016100014005FF00008B56C306D002833D0002C4A
:1016200014D1D6F85090BA46D6F804B04A4651467E
:10163000584600F009F97068316D084470607068B0
:10164000B16888421FD3306870601CE0D6F85090B3
:10165000BA46D6F80CB04A465146584600F0F4F85F
:10166000F068316D49420844F060F06831688842A2
:1016700004D2B068316D49420844F060022C02D1B6
:10168000002D00D06D1E681CB0644046BDE8F28F8E
:101690002DE9F04104000D00206D002811D0E06814
:1016A000216D0844E060E068A168884201D32068A9
:1016B000E060266DE768A84632003900404600F039
:1016C000C3F8BDE8F081F8B50400FFF751FB94F9C9
:1016D0005550280040B2012819DBA06D002807D022
:1016E000200000F068F800280FD0FFF761F90CE047
:1016F000E06A002808D014F12C00FFF79BF80028BE
:1017000003D0FFF755F900E001E06D1EE1E75FF05F
:10171000FF3684F85560FFF737FBFFF729FB94F994
:101720005470380040B201280CDB2069002809D031
:1017300014F11000FFF77EF8002801D0FFF738F908
:101740007F1EEEE784F85460FFF71EFBF1BD38B54D
:101750000400FFF70DFBA06C002801D1012500E07B
:101760000025FFF711FB280032BDF8B504000D007D
:1017700016002700FFF7FCFA97F9540010F1010F4B
:1017800002D1002087F8540097F9550010F1010F9D
:1017900002D1002087F85500FFF7F6FAB86C002850
:1017A00005D13200290017F12C00FFF721F838008D
:1017B000FFF789FFF1BD71B581B00198846D0025F7
:1017C000A06CE16C884222D294F95560002201A9F4
:1017D0002000FFF719FF050030005FF0FF3140B235
:1017E00088420BD1E06A002811D014F12C00FFF7D9
:1017F00021F800280BD00120050008E0FEF7E5FEE7
:10180000310049B2814202D2711C84F8551028007F
:1018100076BD0000002200F06BB8000007490868A0
:1018200008B1002070470648C008C000086005499C
:10183000C908C900091A0160704700BF30160020AE
:10184000471E00204026002062B38B0708D0521E9E
:1018500011F8013B00F8013B00F024808B07F6D122
:10186000830740F0208000BF103A07D330B4B1E8BE
:101870003810103AA0E83810F9D230BC530724BF12
:10188000B1E80810A0E8081044BF51F8043B40F844
:10189000043BD20724BF31F8022B20F8022B44BFAF
:1018A0000B7803707047121F17D35B0009D151F8F2
:1018B000043B20F8023B1B0C121F20F8023BF6D21F
:1018C0000BE051F8043B00F8013B1B0A20F8023BF7
:1018D0001B0C121F00F8013BF3D238BF121D521E21
:1018E00024BF11F8013B00F8013BF8D87047000015
:1018F00000B500BF130096469446103928BFA0E8F3
:101900000C50FAD85FEA417C28BF0CC048BF40F8B1
:10191000042BC90728BF20F8022B48BF00F8012B71
:1019200000BD000010B4DFF800190A681206FAD4EE
:101930000A689207FCD5DFF8F428136853F00073A7
:101940001360136853F0805313600300DBB2DFF8B9
:10195000E04823600B689B07FCD50B681B06FCD492
:10196000116851F400711160116851F480511160D7
:1019700010BC704710B4DFF8B0180A681206FAD429
:101980000A689207FCD5DFF8A428136853F40073A3
:101990001360136853F0805313600300DBB2DFF869
:1019A000904823600B689B07FCD50B681B06FCD492
:1019B000116851F48051116010BC7047F8B50024D3
:1019C000032505260022102A1DDA0023152B15DA1F
:1019D00000212800C0B20143090211F47F41300008
:1019E000C0B201430C00DFF84C082A2101FB02F1D0
:1019F000084420F81340AD1D5B1CE7E703200500F9
:101A00000A36521CDFE7DFF82408016851F48071C0
:101A100001600120FFF786FFDFF81C78380000F036
:101A200059FC1120FFF77EFF380000F053FC3A20EC
:101A3000FFF778FF0520FFF79DFF4FF47A7000F065
:101A400049FC3620FFF76EFF0020FFF793FF4FF4AD
:101A50007A7000F03FFC2920FFF764FFF1BD10B55C
:101A60002A20FFF75FFF0020FFF784FF0020FFF729
:101A700081FF0020FFF77EFF7F20FFF77BFF2B20F9
:101A8000FFF750FF0020FFF775FF0020FFF772FF00
:101A90000020FFF76FFFA020FFF76CFF2C20FFF75F
:101AA00041FF0024B4F5A04F07DA0020FFF762FFE2
:101AB0000020FFF75FFF641CF4E710BD2DE9F84F2D
:101AC000040011F1FD05CE1C89B2090A8B461BF1F9
:101AD000FE071BF102082A20FFF724FF0020FFF772
:101AE00049FF3800C0B2FFF745FF0020FFF742FF73
:101AF0004046C0B2FFF73EFF2B20FFF713FF002048
:101B0000FFF738FF2800C0B2FFF734FF0020FFF7CF
:101B100031FF3000C0B2FFF72DFF2C20FFF702FF8E
:101B20005FF00009B9F1070F27DA5FF0100A50469D
:101B3000C0B200281ED0DFF804172200D2B207205E
:101B4000424301EB020010F8090010EA0A0F06D028
:101B5000FF20FFF70FFFFF20FFF70CFF05E000203D
:101B6000FFF708FF0020FFF705FF5FFA8AFA5FEA38
:101B70005A0ADCE719F10109D4E7BDE8F18F70B525
:101B800004000D0016002A20FFF7CCFE200080B2D2
:101B9000000AC0B2FFF7EEFE2000C0B2FFF7EAFE77
:101BA0002B20FFF7BFFE280080B2000AC0B2FFF76B
:101BB000E1FE2800C0B2FFF7DDFE2C20FFF7B2FEE9
:101BC000300080B2000AC0B2FFF7D4FE3000C0B2CD
:101BD000FFF7D0FE002070BD2DE9FB4F82B015004D
:101BE0000F9C40F26910BDF81010814201DB01200A
:101BF000B9E0BDF83810814201DB0120B3E0BDF847
:101C00003880404680B2B0F5B47F01D100208046D4
:101C10005FF000094846BDF8101080B2884280F09D
:101C2000A180BDF808000600BDF80C000700404682
:101C300080B200280CD0404680B25A2808D04046D6
:101C400080B2B42804D0404680B2B0F5877F03D17B
:101C50000020ADF8020008E0404680B25A2190FB17
:101C6000F1F201FB1200ADF80200DFF8D4152A00F2
:101C7000D2B2BDF8020031F81000424342F21070B7
:101C800092FBF0F082462A00D2B2BDF80200404238
:101C900001EB4000B0F8B400424342F2107092FBF6
:101CA000F0F083462800C0B2824501D1BAF1010AA2
:101CB0002800C0B2834501D1BBF1010B404680B280
:101CC0005A2190FBF1F08DF800009DF800000028EB
:101CD00005D002280DD007D303280FD013E01BEB4B
:101CE00006061AEB07070EE0B6EB0A061BEB070722
:101CF00009E0B6EB0B06B7EB0A0704E01AEB0606A1
:101D0000B7EB0B07FFE72A20FFF70CFE0020FFF7D9
:101D100031FE3000C0B2FFF72DFE2B20FFF702FE90
:101D20000020FFF727FE3800C0B2FFF723FE2C206B
:101D3000FFF7F8FD200080B2000AC0B2FFF71AFEDC
:101D40002000C0B2FFF716FE404680B240F2671195
:101D5000884202DB0020804601E018F1010819F1F9
:101D6000010957E7002005B0BDE8F08F2DE9F043E9
:101D70000400079D089E9E46704600B200280ED4BF
:101D8000704600B240F26917B84221DB0FFA8EFEAE
:101D90004FF4B4709EFBF0F700FB17EE18E07FEAFB
:101DA0000E0E1EF1010E7746380000B24FF4B47CDF
:101DB00090FBFCFE0CFB1E00002807D03FB2D7F5BD
:101DC000B47E97FBFCF00CFB00EE01E05FF0000E30
:101DD000704600B25A2790FBF7F7704600B25FF0EA
:101DE0005A0C90FBFCF80CFB1800002808D00FFAE6
:101DF0008EFE5A209EFBF0FC00FB1CEEF44601E038
:101E00005FF0000CDFF838E490465FFA88F860462F
:101E100000B23EF8100000FB08F842F2107098FB88
:101E2000F0F891465FFA89F9604600B240420EEB45
:101E30004000B0F8B40000FB09F942F2107099FBC1
:101E4000F0F096465FFA8EFEF04501D1B8F1010838
:101E500096465FFA8EFE704500D1401EBE461FFAC0
:101E60008EFEBEF1000F08D0BEF1020F17D00DD3C9
:101E7000BEF1040F01D01BD323E010EB040EA5F834
:101E800000E018EB010EA6F800E01AE0B4EB080E33
:101E9000A5F800E010EB010EA6F800E011E0B4EBAD
:101EA000000EA5F800E0B1EB080EA6F800E008E08F
:101EB00018EB040EA5F800E0B1EB000EA6F800E068
:101EC000FFE7BDE8F0832DE9FE4F88B004000D0068
:101ED0000998008840F26911884207DB0F200A99AF
:101EE00008800F200999088000209AE1099800884D
:101EF0000A990988884201D1002092E10A98008855
:101F000009990988884218D2099801880A98008896
:101F1000091AADF80810BDF80800B42803DA01204A
:101F20008DF80A0021E000208DF80A00BDF80800B5
:101F3000D0F5B470ADF8080017E00A980188099848
:101F40000088091AADF80810BDF80800B42803DAB3
:101F500000208DF80A0008E001208DF80A00BDF885
:101F60000800D0F5B470ADF808000A98B0F800A0E9
:101F7000BDF80800002800F04F81BDF80800401EA1
:101F8000ADF808009DF80A00002800F0A1801AF1C1
:101F9000010A504680B2B0F5B47F01D100208246DC
:101FA00056460020010089B202290ADA310089B2BE
:101FB000002903D140F267110E0000E0761E401C9C
:101FC000F0E71AF1B2010F00390089B240F269124C
:101FD000914201DBB7F5B4775FF00008404680B26C
:101FE00004281CDA06A8414689B220F8116004A82A
:101FF000414689B220F81170761C7F1C300080B2F7
:10200000B0F5B47F01D100200600380080B2B0F5F1
:10201000B47F01D10020070018F10108DEE700209D
:102020008146484680B20428A2DA5FF0170B584672
:1020300080B21E2821DA03A801900DF10E00009055
:1020400006A8494689B230F9110003001BB25A466E
:10205000D2B2290089B2200080B2FFF787FE79480A
:10206000494689B230F81120BDF80C10BDF80E00B9
:10207000FFF785FD1BF1010BD9E75FF0170840461C
:1020800080B21E2821DA03A801900DF10E00009005
:1020900004A8494689B230F9110003001BB2424638
:1020A000D2B2290089B2200080B2FFF75FFE6648F5
:1020B000494689B230F81120BDF80C10BDF80E0069
:1020C000FFF75DFD18F10108D9E719F10109A8E74B
:1020D000504680B2002803D140F26710824601E0EA
:1020E000BAF1010A56460020010089B2022909DA34
:1020F000761C310089B2B1F5B47F01D100210E0008
:10210000401CF1E71AF1B6010F00390089B240F224
:102110006912914201DBB7F5B4775FF000084046E1
:1021200080B204281EDA06A8414689B220F8116060
:1021300004A8414689B220F81170300080B200280E
:1021400003D140F26710060000E0761E380080B22E
:10215000002803D140F26710070000E07F1E18F14D
:102160000108DCE700208146484680B20428BFF61B
:10217000FFAE5FF0170B584680B21E2821DA03A885
:1021800001900DF10E00009006A8494689B230F981
:10219000110003001BB25A46D2B2290089B22000B6
:1021A00080B2FFF7E3FD2748494689B230F8112095
:1021B000BDF80C10BDF80E00FFF7E1FC1BF1010BA0
:1021C000D9E75FF01708404680B21E2821DA03A83D
:1021D00001900DF10E00009004A8494689B230F933
:1021E000110003001BB24246D2B2290089B220007E
:1021F00080B2FFF7BBFD1448494689B230F8112080
:10220000BDF80C10BDF80E00FFF7B9FC18F101087D
:10221000D9E719F10109A7E7099800880A99088008
:1022200000200BB0BDE8F08F08380040100C0140D2
:102230000C380040DC09002000A60E000000002041
:10224000E03000085833000860330008F0B414246C
:102250001D4D1E4E3788B6F800C004FB0CFC25F857
:102260000C70378867432F44DFF864C0DCF800C087
:10227000DCF800C0C7F804C0378867432F445FF01C
:10228000000C87F808C0378867432F447872378876
:1022900067432F44B972378867432F44FA723788EF
:1022A00067432F44FB60378804FB07F42C44002568
:1022B00025823488402C03DA3488641C348001E0A1
:1022C00000243480F0BC7047DC0400203416002069
:1022D000881500200021814201D2491CFBE770478C
:1022E00038B50400FFF7BBFB00F01AF847F664505E
:1022F000FFF7F0FFDFF81454DFF81404808AD0F5FC
:10230000B4702880C046C04600F0E2F800F0DCF966
:10231000DFF800342A003C215A20FFF7D4FDE9E71A
:102320002DE9FC4100252800C0B215280EDADFF89F
:10233000E8032900C9B230F81110DFF8E0032A00E1
:10234000D2B2805CFFF7BAFB6D1CECE700242000E2
:10235000C0B2152810DADFF8C0032100C9B200EBC3
:102360004100418DDFF8B4032200D2B21044407D19
:10237000FFF7A4FB641CEAE703263000C0B209287B
:1023800033DA002004002000C0B215282BDA200028
:10239000C0B2012811D1DFF880133200D2B22A2056
:1023A000424301EB02002100C9B230F8111016F1CE
:1023B0000D00C0B2FFF782FB13E0DFF85C133200C0
:1023C000D2B22A20424301EB02002100C9B230F808
:1023D0001110D2482200D2B2104490F82A00FFF720
:1023E0006DFB641CCFE7761CC7E70A252800C0B246
:1023F000102834DA002004002000C0B215282CDA9E
:102400002000C0B2012803D02000C0B20A280FD19A
:10241000C1492A00D2B22A20424301EB0200210026
:10242000C9B230F81110A81DC0B2FFF747FB12E087
:10243000B9492A00D2B22A20424301EB020021000E
:10244000C9B230F81110B5482200D2B2104490F849
:102450003F00FFF733FB641CCEE76D1CC6E7002688
:102460003000C0B215280ADAAC483100C9B20844BD
:10247000407DAB493200D2B28854761CF0E745F675
:102480009F600190002000904FF4B4731E223C2105
:102490005A20FFF7A1FB9F4C40F231172780DFF84D
:1024A0006C82EB20A8F80000230042463C215A2011
:1024B000FFF709FDA8F80070230042463C215A208E
:1024C000FFF701FD5A20974909680880BDE8F381AC
:1024D0002DE9F84F8E48848A200080B2642190FB59
:1024E000F1F52800C0B2002808D08B48B0F84C1095
:1024F00015F11000C0B2FFF7E1FA05E08648B0F828
:102500004C100020FFF7DAFA200080B2642190FB23
:10251000F1F201FB1200C0B20A2190FBF1FA504621
:10252000C0B2002808D07C48B0F84E101AF1100054
:10253000C0B2FFF7C3FA05E07748B0F84E100020AC
:10254000FFF7BCFA200080B20A2590FBF5F105FBED
:1025500011057148B0F8501015F11000C0B2FFF726
:10256000ADFA6D48B0F852100720FFF7A7FA6E4891
:10257000D0F800805FF003094846C0B209282FDA7E
:10258000B8F8000004000C20060003200700380003
:10259000C0B207281FDA200080B2304110F00F00CF
:1025A0000100C9B20A2902DB0500173501E0050068
:1025B000103559494A46D2B22A20424301EB020063
:1025C0003900C9B230F811102800C0B2FFF776FA0E
:1025D000361F7F1CDBE718F1020819F10109CBE770
:1025E0005248D0F800A05FF00A0B5846C0B210283D
:1025F0002FDABAF8000004000C20060003200700C0
:102600003800C0B207281FDA200080B2304110F035
:102610000F000100C9B20A2902DB0500173501E0ED
:10262000050010353C495A46D2B22A20424301EBFC
:1026300002003900C9B230F811102800C0B2FFF70B
:102640003DFA361F7F1CDBE71AF1020A1BF1010B72
:10265000CBE73748D0F800805FF00A094846C0B29F
:1026600010282FDAB8F8000004000C2006000C2017
:1026700007003800C0B210281FDA200080B23041B5
:1026800010F00F000100C9B20A2902DB050017355E
:1026900001E00500103520494A46D2B22A204243C3
:1026A00001EB02003900C9B230F811102800C0B2A5
:1026B000FFF704FA361F7F1CDBE718F1020819F157
:1026C0000109CBE7BDE8F18F1A48016844F62062A2
:1026D000914203D20168491C016014E000210160AD
:1026E00015490878002807D01448026852F00052B3
:1026F00002600020087006E01048026852F40052A0
:1027000002600120087070470000000038160020A9
:102710007C1000203A160020DC0900206C04002008
:10272000681500209015002094150020AC1500209D
:10273000C4150020DC1500203C16002010100140BC
:10274000DFF84813086850F400400860086830F467
:1027500000400860DFF83803026852F060620260EF
:10276000026852F060420260DFF82803026852F407
:1027700000120260086830F002000860DFF81803F9
:102780000268920992010260026852F0040202603B
:10279000DFF80823106830F400401060136840F63A
:1027A000FF70034313600E20DFF8F4221060086806
:1027B00050F0010008607047BA48016821F070418C
:1027C0000160016831F070610160016831F47001ED
:1027D0000160016831F470210160016851F03041FD
:1027E0000160016851F080610160016851F43001BD
:1027F0000160016851F400310160A648016851F49C
:1028000080410160A848016851F4007101600168CD
:1028100051F480710160016851F0040101600168A8
:1028200051F0400101607047A048016851F48041B7
:1028300001609F48016831F040010160016851F07A
:1028400080010160016851F030010160016831F4DC
:1028500080610160016851F400610160016831F438
:10286000407101609348016851F4806101609248B1
:102870004FF40051016040F2A111904A11600168CB
:1028800051F008010160016851F00401016000206D
:102890008B49086000208B49086070477D480168BB
:1028A00051F4003101608848016831F480610160B1
:1028B000016851F400610160016851F440710160E8
:1028C000016831F480410160016851F40041016008
:1028D000016831F4405101607648016851F0080107
:1028E00001607A484FF40051016040F2A111784A2A
:1028F000116078490A6852F040020A600A6852F092
:1029000080020A60016851F008010160016851F01D
:10291000040101607047F0B401006F4A106800289C
:10292000FBD16E4803685B085B000360B1230B704A
:1029300000234B704B799B1D8B704CF2C0138E782B
:102940003400E4B20C4463808C78241D00252E00F2
:102950002700F6B2FFB2BE420AD22E00F6B28E5D5A
:102960005F4FAC465FFA8CFC07F80C606D1CEEE71D
:102970002600F6B21660026852F001020260F0BC56
:1029800070472DE9F0410200002400250026554F34
:102990003868402850D2DFF850C1BCF80000B0F5CC
:1029A0007A7F0DDABCF80000401CACF800003868F3
:1029B000D0F1400005002800C0B20A283CDB03E04B
:1029C0000020ACF8000039E0DFF820E19EF80000BC
:1029D000F12833D19EF8010000282FD19EF8020083
:1029E00006002800C0B2B0465FFA88F818F1040863
:1029F000404521D1002003001800A846C0B25FFA6C
:102A000088F840450AD21800C0B21EF80000984667
:102A10005FFA88F802F808005B1CEDE72800C0B2F6
:102A2000104430F8020C010008004CF2C01E80B2C5
:102A3000704500D12C0001E0002024E02C48D0F8A3
:102A400000E05FEA5E0E5FEA4E0EC0F800E05FF065
:102A5000400EC7F800E000273B00DBB2402B09DA4C
:102A60000023DFF888E0B8465FFA88F80EF80830EF
:102A70007F1CF1E70023ACF80030036853F001033A
:102A800003602000C0B2BDE8F081000000540040A7
:102A9000000C01401C100240045400401C54004033
:102AA00020540040040C014000380040181002403F
:102AB00004080140100801400C380140083801406A
:102AC0001038014014380140000801400C44004017
:102AD000084400401444004084000240800002404A
:102AE00024140020700002403616002064140020D8
:102AF0006C00024080B500F0B8F800F015F800F066
:102B00006DF8FFF71DFEFFF757FEFFF78DFEFFF78D
:102B1000C5FE00F006F9FEF751FF002301220A214D
:102B20000120FFF793FB01BD9248CA2101700121EA
:102B3000417000218170C11C8F4A116010F1100199
:102B40008E4A116010F114018D4A116010F12001BC
:102B50008C4A116010F122018B4A116010F124019E
:102B60008A4A116010F12601894A116010F128018A
:102B7000884A116010F12A01874A116010F12C0176
:102B8000864A116010F12E01854A116010F1300162
:102B9000844A116010F13201834A116010F134014E
:102BA000824A116010F13601814A116010F138013A
:102BB000804A116010F13A017F4A116010F13C0126
:102BC0007E4A116010F13E017D4A116010F1400112
:102BD0007C4A116042307C49086070477B4801683C
:102BE00051F004010160016851F0080101600168C1
:102BF00051F010010160016851F001010160744859
:102C0000016851F400110160016831F44001016074
:102C10007048016851F4005101606F48016851F03B
:102C200002010160016831F00C010160016851F09E
:102C300020010160016831F0C0010160674801684E
:102C400051F400110160016831F4400101606448F1
:102C5000016851F080710160016851F000710160FC
:102C6000016851F020010160704710B45D480168AF
:102C700031F480310160016851F48031016000233A
:102C8000190089B2B1F57A6F04DA0168890301D4B9
:102C90005B1CF5E7190089B2B1F57A6F05DB0168B5
:102CA00031F480310160012039E04F4A116851F45C
:102CB00000211160116851F480311160016851F0F8
:102CC0008071016000210B009BB2B3F57A6F04DACA
:102CD00003689B0101D4491CF5E70B009BB2B3F5D7
:102CE0007A6F09DB026832F480320260026832F0E7
:102CF00080720260022012E03C4B1C6854F0010418
:102D00001C60136853F002031360136813F00C0384
:102D1000082BFAD10268520852000260002010BC51
:102D200070473348016851F0010101603148016882
:102D300051F08001016040212F4A11602F49304A33
:102D40001160304A304B1A60026852F00102026092
:102D50002E48026852F080020260026852F01002AF
:102D6000026000202A4A10602A4801602A482B4944
:102D7000086070477C1000208C150020881500200A
:102D80009015002094150020981500209C15002017
:102D9000A0150020A4150020A8150020AC150020C7
:102DA000B0150020B4150020B8150020BC15002077
:102DB000C0150020C4150020C8150020CC15002027
:102DC000D0150020D4150020D8150020181002407E
:102DD0000410014010100140040C0140000C01409F
:102DE000100C01400010024004100240002002407C
:102DF000141002406C000240700002400444004085
:102E000074000240641400207800024080000240F8
:102E10008400024088000240241400208C000240FC
:102E20002DE9F84F00260027DFF8A4824046FFF77F
:102E3000A8FD81464846C0B2002800F0358198F8C8
:102E40000400040098F805000500B8F80600824662
:102E50002000C0B2002804D0401E022840F28E801C
:102E600020E1504680B2B0F5807F24DA514689B225
:102E70002800C0B24118491EB1F5807F18DA012040
:102E800006000020834658462900C0B2C9B28842D5
:102E900073D29049524692B25846C0B28218885CAA
:102EA0008D495A46D2B2114408721BF1010BEAE770
:102EB0000120070061E0504680B2B0F5805F2FDB53
:102EC000504680B2B0F5005F2ADA514689B2280038
:102ED000C0B24118491EB1F5005F1EDA012006009C
:102EE0005FEA0A5A5FEA1A5A7C480090002083463B
:102EF00058462900C0B2C9B288423ED20098514615
:102F000089B208445946C9B2405C73495A46D2B2A4
:102F1000114408721BF1010BEAE7012007002CE0C5
:102F2000504680B2B0F5405F25DB504680B2B0F528
:102F3000445F20DA514689B22800C0B24118491EC8
:102F4000B1F5445F14DA012006000AF0FF0A002000
:102F5000834658462900C0B2C9B288420DD211201A
:102F60005D495A46D2B2114408721BF1010BF0E7D9
:102F70000120070001E00120070095E0504680B2E3
:102F8000B0F5807F6EDA504680B2102867DB51467C
:102F900089B22800C0B24118491EB1F5445F5BDA1E
:102FA0002000C0B2012815D10020834658462900D0
:102FB000C0B2C9B2884274D25846C0B24044017A05
:102FC000444A53469BB25846C0B2C318D1541BF171
:102FD000010BEBE72000C0B202281CD10020834681
:102FE00058462900C0B2C9B288425AD2394952461D
:102FF00092B25846C0B282188A5C5846C0B2404469
:10300000007A024053469BB25846C0B2C318CA5415
:103010001BF1010BE4E72000C0B2032841D10020DE
:10302000834658462900C0B2C9B2884239D22949DC
:10303000524692B25846C0B282188A5C5846C0B214
:103040004044007A024353469BB25846C0B2C3186C
:10305000CA541BF1010BE4E70120070021E0012025
:1030600007001EE0504680B2B0F5405F17DB5046C7
:1030700080B2B0F5804F12DA504680B210280BDBD8
:10308000514689B22800C0B24118491EB1F5445FCB
:1030900007DB0120070004E00120070001E0012018
:1030A000070001E0012007003000C0B200280DD069
:1030B0000948017951F0A0010171457198F8061095
:1030C000817198F80710C171FFF725FCBDE8F18FF9
:1030D000A41300207C100020E4130020DC04002056
:1030E0000000AE005C010B02B90267031504C204C4
:1030F0006F051C06C80674071F08C90873091C0A57
:10310000C40A6B0B120CB70C5C0DFF0DA20E430F23
:10311000E30F82101F11BB115612F01288131E14F8
:10312000B3144615D7156716F51682170C1895189F
:103130001B19A019231AA31A221B9F1B191C911CCF
:10314000071D7B1DEC1D5B1EC81E321F9A1FFF1F33
:103150006220C22020217B21D4212A227D22CE225E
:103160001B236723AF23F52337247724B424EF24CC
:1031700026255B258C25BB25E6250F2635265826DA
:1031800078269426AE26C526D926E926F7260227D4
:1031900009270E2710270000E0B5FFF7ABFC00F071
:1031A0002FF80020019001200090002380220E497A
:1031B0000E48FDF725F80020019001200090002323
:1031C00080220B490B48FDF71BF8002001900120DD
:1031D00000900023802208490848FDF711F8FDF708
:1031E00023F900200EBD00BF683300084F330008EC
:1031F00070330008E12200087833000841330008EA
:103200000F49086850F0010008600E4A13680E4824
:10321000034013600B680D4803400B60086830F4EE
:1032200080200860106830F4FE0010605FF41F001A
:10323000074908605FF000600649086070470000B9
:1032400000100240041002400000FFF8FFFFF6FEED
:103250000810024008ED00E030B4002512E050F8FC
:10326000042BD30744BF4A44521E091F042942F8C5
:10327000045BFAD213468C0744BF15809B1CC90718
:1032800048BF1D7050F8041B0029E8D130BC7047BE
:1032900010B5074979441831064C7C44163404E0D3
:1032A0000A68081D114488470146A142F8D110BDA3
:1032B0000800000024000000A1FFFFFF64110000CF
:1032C000DC04002000000000CBD9FFFF88010000D3
:1032D00028060000000000200120C046002801D080
:1032E000FFF7D6FFAFF300800020AFF30080FFF7B9
:1032F00053FF00F000F800F001B800000746384620
:1033000000F002F8FBE70000202109032631182015
:10331000ABBEF9E70548014603B4684680F3098867
:10332000AFF30080AFF30080FFF7D6FFA5EDF5FE09
:103330000148804701480047013200081533000862
:1033400010B5040047F66450FEF7C4FFFAE710B565
:103350000400FFF765FDFCE700009F5E9F5E9F5E37
:103360000000C6FAC6FAC6FA636F6E746163740031
:10337000656372616E000000636F6D70617373004E
:1033800049444C4500000000546D722053766300A0
:10339000FFF7FEBFFFF7FEBFFFF7FEBFFFF7FEBF61
:1033A000FFF7FEBFFFF7FEBFFFF7FEBFFFF7FEBF51
:1033B000FFF7FEBFFFF7FEBFFFF7FEBFFFF7FEBF41
:1033C000FFF7FEBFFFF7FEBFFFF7FEBFFFF7FEBF31
:1033D000FFF7FEBFFFF7FEBFFFF7FEBFFFF7FEBF21
:1033E000FFF7FEBFFFF7FEBFFFF7FEBFFFF7FEBF11
:1033F000FFF7FEBFFFF7FEBFFFF7FEBFFFF7FEBF01
:10340000FFF7FEBFFFF7FEBFFFF7FEBFFFF7FEBFF0
:10341000FFF7FEBFFFF7FEBFFFF7FEBFFFF7FEBFE0
:10342000FFF7FEBFFFF7FEBFFFF7FEBFFFF7FEBFD0
:10343000FFF7FEBFFFF7FEBFFFF7FEBFFFF7FEBFC0
:10344000FFF7FEBFFFF7FEBFFFF7FEBFFFF7FEBFB0
:10345000FFF7FEBF420001220401200300040A0A14
:103460000A1110010A0A1F0220170A040F140E0580
:103470001E04181902040813030C12140815120D67
:103480000C04082311131002080804020312020B93
:1034900020040004150E150447121F471101512680
:1034A000531F000110020C0C000128200910000E0F
:1034B00011131519110E040C7210180E0E110101C2
:1034C0000E101F1F02040201110E02060A121F0233
:1034D000021F101E010E30070E11101E11110E1FBB
:1034E000116B120E0B11031104120F1C114F11035B
:1034F0002104120C6A21591189216F1171210B11BC
:1035000011115B1202D2400D0E17191917100E0778
:1035100009111F1111111E03115B10041010110E5F
:103520001C12134007121C1F10101E10101F071131
:103530003820011010176C3131360E1910010E07AA
:1035400002012006120C1112141814123D11013040
:10355000031F111B15110130011915139E110122B2
:103560000E5F31461711112D210E10021814130F82
:1035700011300301011E1F040141354130220A0EA2
:1035800020021515150A0B520A131546352D331F47
:103590001C6A561C452307010112072772000137D8
:1035A0001F086F110110030E1212120DC321E61134
:1035B0000E1211E0100101010F0E220F0E14051F53
:1035C000100E0609081C4936004310030E10101691
:1035D000191D1604AA11E02001020006E0340508B6
:1035E00008090A0C0A099C1004040E00001A1501AF
:1035F0003300002A214611B6330000E21300005BBD
:10360000230F011C11A4111C11E1231E08611002DB
:10361000090600002933130D07330A04071A15574A
:1036200031E1210E220F4615F3F0010A081F0001B7
:1036300065B231D3561EB9461F7B13060A01571FC8
:1036400011B911A5220E0434021102060157296294
:10365000330A150755B21001030509017611B24569
:10366000DC310C430E1F1375B9391B85AB296F3143
:103670005F570404A4221201331F011C3001010111
:103680001501218511061B0118AA2309095A2401D5
:103690001915151B496F22014624051215151D1514
:1036A0001512395401050911B2158A29D8110E12C3
:1036B00009021557120801130000E2571F11B93310
:1036C0000000E1110E64020106010E5E470215655D
:1036D0001213E126132F11E0111C21E22123961F62
:1036E000B231E275B9391B111521E2658F23040E41
:1036F000E075A41199331F011C12010721DB321F51
:10370000072115331808A8400611111D131D0000CC
:10371000080E20010E1107541212E12A121B340365
:103720000F030D0A1F9D520AC412AA011006324F40
:1037300043410056110E851DA70333101A03780A62
:1037400028454C4C4F0047415244454E1022211A07
:10375000CB10102062221592231EE8066E8F878BF5
:08376000848F00114B2D1703AB
:0400000508003315A7
:00000001FF
