:020000040800F2
:10000000882F00200139000811390008153900082F
:10001000193900081D3900082139000800000000C6
:100020000000000000000000000000002F2E00086B
:100030002539000800000000E92D00083F2A0008CB
:10004000293900082D3900083139000835390008F0
:10005000393900083D3900084139000845390008A0
:10006000493900084D390008513900085539000850
:10007000593900085D390008613900086539000800
:10008000693900086D3900087139000875390008B0
:10009000793900087D390008813900088539000860
:1000A000893900088D390008913900089539000810
:1000B000993900089D390008A1390008A5390008C0
:1000C000A9390008AD390008B1390008B539000870
:1000D000B9390008BD390008C1390008C539000820
:1000E000C9390008CD390008D139000800F5E070A1
:1000F0000268914203D280680028F9D170474368B2
:100100001A449142F7D270471749086880B94FF4F2
:10011000805048604FF480324FF0FF30C860086173
:100120000420124B8A604861C3F8BC011048086083
:100130000120704701F1080313F0070F0EBF0023E1
:10014000C3F1080303F007031944D21A8161C260A6
:1001500042F001034B60091D4FF0280C41F802C02A
:10016000014A1369C36170475827002038220020D4
:100170006859883C2DE9F84F84B00646AFF30080FB
:10018000F52E1E4D80F013820B2E31BF10260B363C
:10019000F608F6002868F408E04010F0030F4AD093
:1001A000C04300F00100041905F1280000EBC40869
:1001B000E700D8F808607068C008C000B84218BFEF
:1001C00001F0FCF9D6F80890464508BF01F0F6F9B1
:1001D0004E4508BF01F0F2F97068C008C000B8428F
:1001E00018BF01F0EBF9C8450AD12868012101FACE
:1001F00004F420EA04042C6010E000BF3822002040
:100200002869814508D3D9F80C10B14204D1C8F847
:100210000890C9F80C8001E001F0D0F947F0030024
:10022000311D7060301DCA5942F00102C25106F101
:10023000080800F023BFA968B14280F0AA83002813
:1002400000F0A2804FF0010808FA04F1490000FA1A
:1002500004F4484201430C4060420440641E200BF9
:1002600000F01000C440610901F00801CC40A20870
:1002700002F00402D440630803F002030818DC40D3
:100280001018C4F3400718183818FC40241805F15A
:10029000280000EBC40AE700DAF80890D9F8040057
:1002A000C008C000B84218BF01F088F9D9F808B0FA
:1002B000D14508BF01F082F9D94508BF01F07EF9A8
:1002C000D9F80400C008C000B84218BF01F076F9A0
:1002D000DA4506D1286808FA04F420EA04042C6000
:1002E0000DE029698B4508D3DBF80C00484504D1A3
:1002F000CAF808B0CBF80CA001E001F05FF9BF1B11
:1003000046F0030009F10402C9F8040047F00101B6
:10031000915109EB06020192D751AC684FEAD40A19
:10032000BAF11F0F88BF01F049F934B3CDF800A02E
:1003300005F128006E6900EBCA0AD346102C38BFBD
:1003400001F03CF92968009821FA00F2D30704D49F
:1003500008FA00F00843286007E0DAF80800296985
:1003600088422CBF834601F029F9CAF80860CBF80F
:100370000C60C6F808B0C6F80CA0AF6009F1080818
:100380000198686100F07ABE6868002800F0238355
:1003900041420840401E010B01F01001C8404209D3
:1003A00002F00802D040830803F00403D840440858
:1003B00004F002045118E0405918C0F340076118D6
:1003C00005F598787918F840401858F820104868D2
:1003D000C008C0008A46A0EB060B08E0014648684A
:1003E000C008C000801B58453CBF83468A46086948
:1003F0000028F3D149690029F1D128698245C0F06C
:10040000D380DAF80410C90806EB0B09C900494586
:1004100018BF01F0D3F80AEB06008245019080F086
:10042000C380DAF80C40DAF8187054450DD0DAF8C9
:1004300008002969884223D3C268524504BFA168D5
:1004400051451DD1C460A0601CE00AF114010C6884
:1004500034B90AF110010C68A4B101E011460C682E
:1004600004F114021068002802BF04F110021068A1
:100470000028F3D12869814202D300220A6001E0FA
:1004800001F09CF8002F38D0DAF81C0008EB80014E
:100490000A6892450AD11CBB6A68012303FA00F07E
:1004A00022EA000068600020086026E029698F4287
:1004B00013D33869504514BF7C613C61ECB12969A4
:1004C0008C4218D3A761DAF8100058B1884226BFD1
:1004D0002061846101F072F804E001F06FF8EDE74B
:1004E0000C60ECE7DAF8140038B12969884202D3CD
:1004F0006061846101E001F061F8BBF1100F0ED280
:1005000049F003000AF10401CAF804000AF10400EA
:1005100051F8092042F0010240F809203EE046F07F
:1005200003010AF10402CAF804104BF001009051D3
:10053000019941F80BB0A8680090C4081F2C88BF2F
:1005400001F03CF8009828B305F1280000996F6984
:1005500000EBC408C146102938BF01F02FF8286805
:1005600020FA04F1CA0705D4012101FA04F4044376
:100570002C6007E0D8F80800296988422CBF814622
:1005800001F01CF8C8F80870C9F80C70C7F808909A
:10059000C7F80C80C5F808B0019868611AF108081E
:1005A00000F0F78100F06ABD01F008F8F1E116F102
:1005B000400F28BF4FF0FF3680F0EB810B36F60876
:1005C0006B68F600002B00F0E4810027C6F10009FB
:1005D000300A08BF002423D0B0F5803F28BF1F2475
:1005E0001ED2A0F58071090C01F008018840A0F529
:1005F0008052120C02F004029040A0F58044240CBA
:10060000C1F10E0104F00204891A091BA04001EB9C
:10061000D031C81D26FA00F404F0010404EB4104B3
:1006200005F5987858F8240040B31F2C0FBFB44646
:100630004FEA540CCCF1190C06FA0CFCBE464946A4
:1006400001E04FEA4C0C4268D208D200921B8A4269
:1006500007D3426910304FEADC7950F829003AB1EB
:1006600003E011000746F4D105E0824218BF964628
:100670000028E6D170468946A8BBB7BB012101FA24
:1006800004F4640060420443234000F08281584235
:1006900003405B1E180B00F01000C340590901F025
:1006A0000801CB409A0802F00402D3405C0804F031
:1006B00002040818E3401018C3F3400C20186044EB
:1006C00023FA0CF31B1858F823000CE00846416885
:1006D000C908C900891B49453CBF894607460169CD
:1006E0000029F3D140690028F1D1002F00F0518199
:1006F000A868801B814580F04C8129698F42FFF4F6
:1007000053AF7868C008C00006EB0901884218BFE3
:1007100000F054FF07EB060B5F45BFF445AFFC68E4
:10072000D7F818A0BC420CD0B8682969884223D3F6
:10073000C268BA4204BFA168B9421DD1C460A060BA
:100740001CE007F114010C6834B907F110010C68C2
:10075000A4B101E011460C6804F1140210680028ED
:1007600002BF04F1100210680028F3D12869814209
:1007700002D300220A6001E000F020FFBAF1000F6E
:1007800039D0F86908EB80010A6897420AD134BB76
:100790006A68012303FA00F022EA00006860002082
:1007A000086028E029698A4516D3DAF81000B842B3
:1007B00014BFCAF81440CAF81040E4B129698C4249
:1007C00017D3C4F818A0386958B1884226BF2061F1
:1007D000846100F0F3FE04E000F0F0FEEDE70C6051
:1007E000ECE7786938B12969884202D36061846195
:1007F00001E000F0E3FEB9F1100F0CD2B14449F072
:100800000300391D7860381D51F8092042F00102BB
:1008100040F80920B9E046F003013A1D796049F03B
:10082000010090514FEAD9004BF809901F2822D8B7
:1008300005F1280101EBC004296821FA00F2D30771
:10084000A04605D4012202FA00F00843286006E021
:10085000A068296988422CBF804600F0AFFEC4F82A
:1008600008B007F10800C8F80CB040F8068007F19E
:100870000C018C5189E05FEA192008BF002123D0C8
:10088000B0F5803F28BF1F211ED2A0F58072120C48
:1008900002F008029040A0F58051090C01F004011B
:1008A0008840A0F580431B0CC2F10E0203F0020346
:1008B000521AD21A984002EBD032D01D29FA00F118
:1008C00001F0010101EB420107F11403CBF81C1008
:1008D00000229A5107F1100308EB81009A516A68CF
:1008E00022FA01F3DC0711D4012303FA01F11143C9
:1008F0006960C0F800B0CBF8180007F1080107F1F3
:100900000C0040F806B041F806B03EE002681F292E
:100910001DBF4908C1F1190109FA01F1494600E07A
:1009200002465068C008C000484518D002F11003C4
:10093000C80F03EB8003490018680028F0D128692C
:10094000834220D3C3F800B007F10C01CBF8182084
:1009500041F806B007F1080040F806B015E0296933
:1009600090688A4228BF88420DD3C0F80CB007F1C6
:100970000801C2F808B0885107F10C00825100222A
:10098000CBF8182001E000F019FE17F1080840F03C
:100990007583A868B0421ED3811B6A6910290AD3E7
:1009A000141DA96041F001009319A051595046F05F
:1009B000030656600BE00021A96040F00304111DFE
:1009C0005460141D0E5846F00106265000236B613A
:1009D00002F1080852E3E8688642C0F03F83DFF87E
:1009E000D49BD9F8000008B9FFF78EFBD9F80800AE
:1009F00081192F31401E81438E4280F03D8305F5E1
:100A0000D877B86838B13A6889188A4280F0348358
:100A10008842C0F0318300F013FE00281CBFD0F8DC
:100A2000008010F1010F00F02783396841443960DC
:100A3000D5F8B021D5F8B4118A4238BF0A46AC695E
:100A40007A6004BB296909B1884200D2286100217B
:100A50003861C7F81480F9614FF0FF31D9F80020F0
:100A60006A62296205F1280200219260D26002F1D7
:100A7000080353611361891C10321F29F5D9A8F1AD
:100A8000280201461DE005F5E0710A46814600E0B6
:100A90009268D2B11068536803449945F8D1107B2D
:100AA000030712D413689C420FD3D2F804C06344E6
:100AB0009C420AD2C444C2F804C02146E86808EB4C
:100AC00000022846FFF736FBC5E22869814538BF9A
:100AD000C5F8109009EB080000E08968002900F0D3
:100AE000C1810A688242F8D1087B020700F1BA810D
:100AF0000868C1F800904A6842444A6009F1080158
:100B000011F0070F08BFCDF8049006D0C1F108011D
:100B100001F0070109EB0102019200F1080111F057
:100B2000070F04D0C1F1080101F007010844804615
:100B30000198A8EB00018419A1EB060B274646F0AB
:100B400003064660474528BF00F038FD98F80400CA
:100B5000C10758BF00F032FDBBF1100F38BF00F0E5
:100B60002DFDA869804508D1E9688B44C5F80CB013
:100B7000AF614BF00100786070E1686980450AD18F
:100B8000A9686F618B44C5F808B04BF0010078602C
:100B900047F80BB062E1D8F8040000F00301012926
:100BA00040F0BC80C008C000C1081F29039040D895
:100BB000D8F808200092D8F80C600291B04508BF20
:100BC00000F0FCFC0098804508BF00F0F7FCD8F866
:100BD00004000299C008C000B0EBC10F18BF00F0BC
:100BE000EDFC0299009A05F1280000EBC100824259
:100BF00008D011462A699142C0F08B80CA684245EC
:100C000040F0878000998E4206D102982A6801231D
:100C100083409A432A607EE0864205D029698E424D
:100C200077D3B068404574D10098C6600099B16030
:100C300071E0D8F818000090D8F80C6046450DD047
:100C4000D8F808002969884223D3C268424504BF06
:100C5000B16841451DD1C660B0601CE008F11401C7
:100C60000E6836B908F110010E68A6B101E0114610
:100C70000E6806F114021068002802BF06F1100287
:100C800010680028F3D12869814202D300220A604B
:100C900001E000F093FC009800283CD0D8F81C003C
:100CA00005F5987101EB80010A6890450AD12EBBC9
:100CB0006A68012303FA00F022EA0000686000205D
:100CC000086028E000992869814214D308694045EA
:100CD00014BF4E610E61F6B129698E4219D3009896
:100CE000B061D8F8100058B1884226BF30618661E3
:100CF00000F064FC04E000F061FCECE70E60EBE760
:100D0000D8F8140038B12969884202D3706186612D
:100D100001E000F053FC039988448B44D8F8041098
:100D200049084900C8F804104BF0010078604FEA08
:100D3000DB0647F80BB01F2E22D805F1280000EB88
:100D4000C604A146BBF1100F38BF00F037FC28687D
:100D500020FA06F1CA0705D4012101FA06F6064376
:100D60002E6006E0A068296988422CBF814600F009
:100D700025FCA760C9F80C70C7F80890FC606DE00E
:100D80005FEA1B2008BF002123D0B0F5803F28BFB9
:100D90001F211ED2A0F58072120C02F008029040B2
:100DA000A0F58051090C01F004018840A0F58043B2
:100DB0001B0CC2F10E0203F00203521AD21A984021
:100DC00002EBD032D01D2BFA00F101F0010101EB52
:100DD0004201F961002305F598727B6102EB810005
:100DE0003B616A6822FA01F3DE0707D4012303FAA4
:100DF00001F1114369600760B8611DE002681F29B5
:100E00001DBF4908C1F119010BFA01F1594600E073
:100E100002465068C008C000584510D002F11003C7
:100E2000C80F03EB8003490018680028F0D1286937
:100E3000834211D31F60BA61FF60BC600EE0296974
:100E400090688A4228BF884206D3C7609460B86021
:100E5000FA600020B86101E000F0B0FB019800F1F9
:100E600008080BE121462846FFF740F90168406871
:100E700008440090A0F1270111F007000EBF0021E7
:100E8000C1F1080101F0070100980844A0F12F0BFF
:100E900004F110018B4538BFA3460BF11802002165
:100EA00002920191A8F1280249462846FFF742F92B
:100EB0000BF1080010F0070F18BF00F07FFB1B209C
:100EC000CBF8040005F5E07292E809500BF1080137
:100ED00081E8095000210BF10800F961B861009A1E
:100EE00002980199C7F81090C7F81480072300E012
:100EF000001D491C00F1080797424360F8D30129FF
:100F0000D8BF00F05BFBA34500F0A580ABEB040B62
:100F1000201D221D50F80B104908490042F80B1003
:100F20004BF0010060604FEADB0944F80BB0B9F107
:100F30001F0F22D805F1280000EBC907B846BBF106
:100F4000100F38BF00F03AFB286820FA09F1CA07F1
:100F500005D4012101FA09F10843286006E0B868C8
:100F6000296988422CBF804600F028FBBC60C8F885
:100F70000C40C4F80880E7606DE05FEA1B2008BF02
:100F8000002123D0B0F5803F28BF1F211ED2A0F53D
:100F90008072120C02F008029040A0F58051090CFA
:100FA00001F004018840A0F580431B0CC2F10E0241
:100FB00003F00203521AD21A984002EBD032D01D2D
:100FC0002BFA00F101F0010101EB420105F59872E5
:100FD000002302EB8100E161636123616A6822FA08
:100FE00001F3DF0707D4012303FA01F1114369601C
:100FF0000460A0611DE002681F291DBF4908C1F1FE
:1010000019010BFA01F1594600E002465068C00888
:10101000C000584510D002F11003C80F03EB800345
:10102000490018680028F0D12869834211D31C6058
:10103000A261E460A4600EE0296990688A4228BF3A
:10104000884206D3C4609460A060E2600020A06182
:1010500001E000F0B3FAE86886420DD2801BA9696E
:10106000E8608A19AA6140F00100506046F003066A
:101070004E6001F1080801E04FF00008AFF3008076
:10108000404605B0BDE8F08F002800D170472DE93B
:10109000F047A0F10805AFF30080DFF81C65316967
:1010A0008D42C0F08482686800F00302012A00F0DB
:1010B0007E82C2084FEAC209C20705EB090839D48B
:1010C0002C6810F0030F00F06E82604205448D42E0
:1010D000A144C0F06C827069854200F0DE80E408B3
:1010E000202C72D2D5F80CA0AF68554508BF00F08F
:1010F00065FABD4208BF00F061FA6868C008C00028
:10110000B0EBC40F18BF00F059FA06F1280000EB4D
:10111000C400874205D031698F4253D3FA68AA428E
:1011200050D1BA4540D13068012101FA04F420EAD7
:1011300004043460454580F03A82D8F80440E00762
:1011400040F13582A10700F18381B069804540F00C
:10115000B780F168B5618944C6F80C9049F0010088
:10116000686071698D4202D100207061B060F169E0
:10117000494580F01882DFF83C24106808B9FEF772
:10118000C3FFB169002900F00E82F068292824BF4E
:101190003046FEF7ABFFF069F168884280F00382C9
:1011A0004FF0FF30F061FEE1824506D030698245A4
:1011B00008D3DAF80810A94204D1C7F80CA0CAF87D
:1011C0000870B7E700F0FAF9B4E7EC68AF69AC4231
:1011D0000BD0A868884222D3C168A94204BFA26884
:1011E000AA421CD1C460A0601BE005F1140214687F
:1011F00034B905F1100214689CB101E01A46146874
:1012000004F114031868002802BF04F110031868E1
:101210000028F3D18A4202D30021116001E000F0DE
:10122000CDF9002F86D0E86906F5987101EB8001B1
:101230000A6895420AD124BB7268012303FA00F0C0
:1012400022EA000070600020086073E731698F4275
:1012500014D33869A84214BF7C613C61002C3FF470
:1012600069AF31698C42ADD3A761286958B1884212
:1012700026BF2061846100F0A1F904E000F09EF92E
:10128000ECE70C60EDE7686900283FF453AF316983
:10129000884297D3606184614CE798F8040000F0BD
:1012A000030003287FF446AFC6F8089049F0010117
:1012B000D8F8040040084000C8F8040069600AE05B
:1012C000706980450AD1B16875618944C6F8089093
:1012D00049F00100686045F8099064E1E408E40021
:1012E000A144E408202C3AD2D8F80CA0D8F8087011
:1012F000D04508BF00F062F9B84508BF00F05EF9BC
:10130000D8F80400C008C000B0EBC40F18BF00F04C
:1013100055F906F1280000EBC400874207D0316977
:101320008F42C0F08880FA68424540F08480BA4518
:1013300007D13068012101FA04F420EA0404346082
:101340007BE0824506D03069824574D3DAF8081014
:10135000414570D1C7F80CA0CAF808706DE0D8F804
:101360000C40D8F8187044450DD0D8F80800316901
:10137000884223D3C268424504BFA16841451DD1BC
:10138000C460A0601CE008F114010C6834B908F1D5
:1013900010010C68A4B101E011460C6804F11402BC
:1013A0001068002802BF04F1100210680028F3D171
:1013B0003069814202D300220A6001E000F0FEF8A9
:1013C000002F3AD0D8F81C0006F5987101EB800187
:1013D0000A6890450AD11CBB7268012303FA00F029
:1013E00022EA000070600020086026E031698F4228
:1013F00013D33869404514BF7C613C61ECB131695D
:101400008C4218D3A761D8F8100058B1884226BF83
:101410002061846100F0D2F804E000F0CFF8EDE73D
:101420000C60ECE7D8F8140038B13169884202D377
:101430006061846101E000F0C1F849F0010068607A
:1014400045F8099071698D420BD1C6F80890AAE061
:1014500064086400C8F8044049F00100686045F879
:1014600009904FEAD907202F22D206F1280000EB7D
:10147000C704A046B9F1100F38BF00F09FF83068DC
:1014800020FA07F1CA0705D4012101FA07F707433B
:10149000376006E0A068316988422CBF804600F0C2
:1014A0008DF8A560C8F80C50C5F80880EC607AE0AB
:1014B0005FEA192008BF002123D0B0F5803F28BF84
:1014C0001F211ED2A0F58072120C02F0080290407B
:1014D000A0F58051090C01F004018840A0F580437B
:1014E0001B0CC2F10E0203F00203521AD21A9840EA
:1014F00002EBD032D01D29FA00F101F0010101EB1D
:10150000420106F59872002302EB8100E9616B61EC
:101510002B61726822FA01F3DC0707D4012303FA76
:1015200001F1114371600560A8611DE002681F2987
:101530001DBF4908C1F1190109FA01F1494600E04E
:1015400002465068C008C000484510D002F11003A0
:10155000C80F03EB8003490018680028F0D13069F8
:10156000834211D31D60AA61ED60AD600EE0316968
:1015700090688A4228BF884206D3C5609560A860FB
:10158000EA600020A86101E000F018F8306A401E0F
:1015900008D13062D6F8C80100E080680028FCD18C
:1015A0004FF0FF303062AFF30080BDE8F08700F00D
:1015B00005F8F8E75827002038220020012000F025
:1015C00055B8F0B40246106895681318506803EBDC
:1015D0005004C00748BF4D44A3422DD013F8016BFF
:1015E00016F0030004BF13F8010BC01C31090F29CA
:1015F00007D113F8011B0F3103E013F8017B05F845
:10160000017B401EF9D10029E6D013F8010BC6F387
:101610008106032E08BF13F8016B00EB0620404241
:1016200028440026B71E8F421EBF10F8017B05F824
:10163000017B761CF6D1CFE7F0BC02F10C007047BD
:101640000749086808B1002070470648C008C00074
:1016500008600549C908C900091A0160704700BF40
:10166000802700208F2F00208837002020210903A9
:1016700026311820ABBEF9E7DFF868190A681306AF
:10168000FCD40A689307FCD5DFF85C29D2F800C0C7
:101690004CF0007CC2F800C0136843F08053136024
:1016A000486008688307FCD508680306FCD4106806
:1016B00040F400701060116841F48051116070476F
:1016C000DFF820190A681306FCD40A689307FCD5D2
:1016D000DFF81429D2F800C04CF4007CC2F800C036
:1016E000136843F080531360486008688307FCD593
:1016F00008680306FCD4106840F4805010607047FE
:10170000F8B503220523DFF8E44810210720D5B2FD
:10171000921D43EA0525D6B2921D24F8025B43EAE6
:101720000627D6B2921D24F8027B43EA0625401E06
:1017300024F8025BEBD103220A33491EDBB2E5D168
:10174000DFF8A408DFF8A848016841F4807101605F
:101750000120FFF791FF204600F074FC1120FFF7F5
:101760008BFF204600F06EFC3A20FFF785FF052036
:10177000FFF7A6FF4FF47A7000F064FC4FF47A7024
:1017800000F060FCBDE8F240292075E710B52A2082
:10179000FFF772FF0020FFF793FF0020FFF790FF95
:1017A0000020FFF78DFF7F20FFF78AFF2B20FFF738
:1017B00063FF0020FFF784FF0020FFF781FF002078
:1017C000FFF77EFFA020FFF77BFF2C20FFF754FFE1
:1017D0004FF4A0440020FFF773FF0020FFF770FFD5
:1017E000641EF7D110BDF8B5044601F1FD06CF1C0B
:1017F0000D0A2A20FFF740FF0020FFF761FF05F1E7
:10180000FE00C0B2FFF75CFF0020FFF759FFAD1CE0
:10181000E8B2FFF755FF2B20FFF72EFF0020FFF760
:101820004FFFF0B2FFF74CFF0020FFF749FFF8B27F
:10183000FFF746FF2C20FFF71FFFDFF8B807DFF8A0
:10184000A837C4EBC40401190720FF22DFF894472E
:101850000D781026354234D0D4F800C05FEA0C670A
:10186000FAD4D4F800C05FEA8C77FAD5D3F800C078
:101870004CF4007CC3F800C01F6847F080571F601D
:1018800062602768BF07FCD527683F06FCD41F6845
:1018900047F480571F60D4F800C05FEA0C67FAD4A1
:1018A000D4F800C05FEA8C77FAD5D3F800C04CF4C6
:1018B000007CC3F800C01F6847F080571F6062605B
:1018C00039E0D4F800C05FEA0C67FAD4D4F800C05D
:1018D0005FEA8C77FAD5D3F800C04CF4007CC3F8EB
:1018E00000C04FF0000C1F6847F080571F60C4F81D
:1018F00004C02768BF07FCD527683F06FCD41F68D3
:1019000047F480571F60D4F800C05FEA0C67FAD430
:10191000D4F800C05FEA8C77FAD5D3F800C04CF455
:10192000007CC3F800C04FF0000C1F6847F08057E0
:101930001F60C4F804C02768BF07FCD527683F06AE
:10194000FCD476081F6847F480571F60F7B2002F59
:101950007FF480AF491C401E7FF47AAFF1BD70B5B3
:1019600004460D4616462A20FFF786FE200AFFF79A
:10197000A7FEE0B2FFF7A4FE2B20FFF77DFE280AAA
:10198000FFF79EFEE8B2FFF79BFE2C20FFF774FEE8
:10199000300AFFF795FEF0B2FFF792FE002070BD0F
:1019A0002DE9FE4FB3F5B47FDABF0C9CB4F5B47FDC
:1019B000012077DC08BF00245FEA030A71D00D9E86
:1019C000DFF834B60192914640F26718ADF8020094
:1019D000ADF80010BDF80250BDF80070002C1CBF1F
:1019E0005A2CB42C01D1002008E0B4F5877FFAD03E
:1019F0005A2094FBF0F100FB114080B201995BF892
:101A00002020DDF804C040420BEB8000514342F23D
:101A10001073D0F8682191FBF3F102FB0CF24945F9
:101A200092FBF3F010D0484508BF401E22465A23CF
:101A3000B2FBF3F2D2B2032A10D8DFE802F00207B9
:101A40000A0D4519CF1909E0491EECE76D1AC719AF
:101A500004E02D1A7F1A01E04D193F1A2A20FFF7E2
:101A60000BFE0020FFF72CFEE8B2FFF729FE2B202B
:101A7000FFF702FE0020FFF723FEF8B2FFF720FE7B
:101A80002C20FFF7F9FD300AFFF71AFEF0B2FFF73E
:101A900017FE4445BABF641CA4B20024BAF1010A7F
:101AA00098D1002003B0BDE8F08F0000F0B41C0016
:101AB0000BD4B4F5B47F1BDD4FF4B47594FBF5F58E
:101AC0004FF4B47303FB15440FE0E443641C24B2E9
:101AD0004FF4B47594FBF5F54FF4B47606FB15435B
:101AE0002BB1C4F5B47406FB054424B200E0002415
:101AF0005A255A2794FBF5F607FB16433546002B6B
:101B00001ABF07FB164424B20024DFF8EC3453F864
:101B10002460644203EB84041746D4F868317E43A2
:101B200042F2107C96FBFCF65F4397FBFCF4964276
:101B300008BF761E944208BF641EADB2049A059B8E
:101B4000042D14D8DFE805F003070B0F030020185D
:101B5000108071180AE0801B1080611806E0001BDD
:101B60001080891B02E030181080091B1980F0BC1E
:101B700070472DE9FE4F8EB01B8812889A4200F004
:101B80002D8293420AD2D21AADF80E20BDF80E2053
:101B9000B42AB8BF012209DB00220AE09A1AADF884
:101BA0000E20BDF80E20B42A02DA0022089207E0C7
:101BB00001220892BDF80E80C8F5B478ADF80E8009
:101BC000ADF80C30804689460CE140F26710411EAA
:101BD000BDF80C20B23290B240F269139842A8BF0F
:101BE000A2F5B472ADF81810ADF81020491C521CC3
:101BF0008BB2B3F5B47F08BF002190B2B0F5B47FCB
:101C000008BF0022ADF81A10ADF81220491C521C72
:101C100088B2B0F5B47F08BF002190B2B0F5B47FB0
:101C200008BF002206AB04A899808280491C521C80
:101C30008EB2B6F5B47F08BF002196B2B6F5B47F78
:101C400008BF0022D980C28006A804AA0423EB4E54
:101C5000EB4F0C900B920A930C98048802A8019009
:101C60000DF10A030093172223B249464046FFF7BD
:101C70001DFF3288BDF80810BDF80A00FFF76FFE9F
:101C800002A80DF10A010190009123B218224946E1
:101C90004046FFF70BFF3288BDF80810BDF80A0078
:101CA000FFF75DFE02A80DF10A010190009123B239
:101CB000192249464046FFF7F9FE3288BDF8081060
:101CC000BDF80A00FFF74BFE02A80DF10A010190D2
:101CD000009123B21A2249464046FFF7E7FE3288B8
:101CE000BDF80810BDF80A00FFF739FE02A80DF193
:101CF0000A010190009123B21B2249464046FFF79A
:101D0000D5FE3288BDF80810BDF80A00FFF727FE9F
:101D100002A80DF10A010190009123B21C2249464C
:101D20004046FFF7C3FE3288BDF80810BDF80A0030
:101D3000FFF715FE02A80DF10A010190009123B2F0
:101D40001D2249464046FFF7B1FE3288BDF8081013
:101D5000BDF80A00FFF703FE0B980188ADF82410C8
:101D6000172402A80DF10A0101900091E2B2BDF919
:101D7000243049464046FFF799FE3D88BDF808A04B
:101D8000BDF80AB02A20FFF777FC4FEA1B20FFF7C7
:101D900097FC5FFA8BF0FFF793FC2B20FFF76CFCAE
:101DA0004FEA1A20FFF78CFC5FFA8AF0FFF788FCF5
:101DB0002C20FFF761FC280AFFF782FCE8B2FFF74E
:101DC0007FFC641CA0B21E28CBDB0B98811C0B91FE
:101DD000BF1C0C98B61C811C0A980C91401E0A90DE
:101DE0007FF43AAFBDF80E00002800F0F380411EEA
:101DF0000898ADF80E10C8B1BDF80C00401CADF845
:101E00000C00BDF80C00B0F5B47F04BF0021ADF8A4
:101E10000C10BDF80C0000283FF4D7AE401E81B274
:101E200000297FF4D4AE40F26711D1E6BDF80C0072
:101E300040F2671100280EBFADF80C10421EADF83D
:101E40000C20BDF80C20521C90B2B0F5B47F08BF36
:101E50000022521C90B2B0F5B47F08BF0022BDF83A
:101E60000C30B63398B240F26916B042A8BFA3F561
:101E7000B47396B2ADF81820ADF81030002E0CBF38
:101E80000846501E9AB2002A0CBF0A465A1E06AED9
:101E900004AB87B270805A80002F0CBF0846401EEA
:101EA00097B2002F0CBF0A46521E87B2B0809A80AC
:101EB000002F0CBF0846401E97B207B1511EF0809C
:101EC000D98004A84D4E06F1080306AF04210C90FA
:101ED0000D930B970A910B980788172402A90DF10F
:101EE0000A00019100903BB2E2B249464046FFF73A
:101EF000DDFD3588BDF808A0BDF80AB02A20FFF73F
:101F0000BBFB4FEA1B20FFF7DBFB5FFA8BF0FFF711
:101F1000D7FB2B20FFF7B0FB4FEA1A20FFF7D0FBCF
:101F20005FFA8AF0FFF7CCFB2C20FFF7A5FB280A0D
:101F3000FFF7C6FBE8B2FFF7C3FB641CA0B21E2884
:101F4000CCDB0C9801880D9FADF82410172402A853
:101F50000DF10A0101900091E2B2BDF92430494629
:101F60004046FFF7A3FD3D88BDF808A0BDF80AB0C4
:101F70002A20FFF781FB4FEA1B20FFF7A1FB5FFA46
:101F80008BF0FFF79DFB2B20FFF776FB4FEA1A2023
:101F9000FFF796FB5FFA8AF0FFF792FB2C20FFF722
:101FA0006BFB280AFFF78CFBE8B2FFF789FB641C88
:101FB000A0B21E28CBDB0B990C98B61C8A1CBB1C4C
:101FC000811C0A980B92401E0D930C910A903FF4CD
:101FD00009AF80E70F98109A01881180002011B096
:101FE000BDE8F08F08380040100C0140481D00206B
:101FF00000A60E007C010020000000206C010020E3
:1020000074010020F0B50E4F07F5A054258805EBAC
:10201000850607EB86073D80D4F804E0DEF8006013
:102020007E6000263E727872B972FA72FB603E8260
:10203000B5F5807FB4BF6D1C00252580F0BD000084
:1020400040090020002100E0491C8142FCD3704778
:102050002DE9F04385B006460E9C00200F469046C1
:1020600099460490002C1CBF0D9D002D19D05021C5
:10207000204600F02BFC04F130000222056042777C
:1020800000200C9A039004A90191009202944B46FF
:1020900042463946304600F038F814B1204600F088
:1020A0007DF804982EE02DE9F8430746164684B0E3
:1020B00088469946B00000F00CFC050020D0502066
:1020C00000F007FC040018D0502100F0FFFB04F1E1
:1020D0003000002105604177039102940D990C981E
:1020E000019100904B4632464146384600F00DF8CB
:1020F000204600F053F8012004E0284600F0F5FBEC
:102100004FF0FF3005B0BDE8F0832DE9F8430A9F9A
:1021100080460C461546386B9946A522A90000F06A
:10212000F1FB396B01EB8500051FED08D4B10021EF
:1021300007F1340223781370207880B163785370EC
:10214000607860B1A3789370A07840B1E378D370E1
:10215000E07820B1091D241D121D1029EAD30020AA
:1021600087F84300089E042E88BF0426099CFE625F
:10217000381D00F0F3FB07F11800002101613F61F9
:10218000C6F10506BE617F624A464146E80000F09E
:1021900015FC386004B12760BDE8F18370B50446D2
:1021A00000F039FCDFF83054A86C401CA864A86B20
:1021B00088BBAC63A86C012835D1DFF820643046B9
:1021C00000F0BDFB06F11C0000F0B9FB06F1380081
:1021D00000F0B5FB06F1540000F0B1FB06F1700011
:1021E00000F0ADFB05F1780000F0A9FB05F19406C5
:1021F000304600F0A4FB284600F0A1FBDFF8CC0439
:1022000000F09DFB05F11C0000F099FB05F1780042
:10221000E8632E6407E0686D28B9E06AA96BCA6AB2
:10222000904228BFAC63686E401C6866E06A296D06
:10223000814238BF2865C0EBC001DFF8A0038900E8
:10224000021D261D5258A2609368E36093685E6089
:1022500096604218626143585B1C435000F0E7FBF4
:10226000686D68B1A86BC16AE06A814208D2DFF884
:1022700018254FF080511160BFF34F8FBFF36F8F60
:1022800070BD000030B587B0002103AA1EA31878E6
:10229000107070B15878507058B1987890700028CC
:1022A00007D0D878D07020B1091D1B1D121D102930
:1022B000EDDBDFF8244304F1B00004F580710290F7
:1022C0000191002500950023802203A90FF23D50C3
:1022D000FFF7BEFEE06698B100F0CCFB01280FD1FD
:1022E000BF2080F31188BFF34F8FBFF36F8F4FF084
:1022F000FF30A066012161650020E06400F076FBFC
:10230000206F07B030BD000049444C45000000007C
:10231000DFF8C402416F491C41677047F8B500F00F
:102320007AFBDFF8B462706F401E70670024706F34
:102330000025002867D1B06C002846D163E0E16831
:10234000416020E0306526E0F068C468E269A06A78
:10235000216A9160226AE169516004F118024168C2
:10236000914204BF216A4160A5620168491E016073
:10237000A2686069E1689160E268A1685160221D0D
:1023800041689142DBD065610168491E0160E06AE5
:10239000316D8142D6D3C0EBC002DFF8401290000D
:1023A0000B1D271D1A58A2609368E36093685F6055
:1023B00097600A1862610B585B1C0B50B06BC16AC6
:1023C000E06A81423CBF0121F16530680028BBD141
:1023D0000CB100F05BFAB46D44B100F01EF808B126
:1023E0000120F065641EF8D10020B065F06D50B199
:1023F000B06BDFF894234FF0805101251160BFF3DB
:102400004F8FBFF36F8FF7E1FFE7DFF8CC01C06CB0
:102410007047DFF8C401806C7047F0B46E4C606F99
:10242000002200287CD1E36C5B1CE36411D1E06BDB
:10243000216CE1632064206E401C2066E16B08681B
:1024400018B94FF0FF31A16603E0E06BC1680D6879
:10245000A566A06E834255D335E000254D61066820
:10246000761E0660886A78B1CE690D6AB5600E6A1C
:10247000CD69756001F118064568B5423AD000276C
:102480008F6205686D1E0560C86A256D854234D36C
:10249000C0EBC006514DB0002F1D01F1040C3E5899
:1024A0008E60B768CF60B768C7F804C0C6F808C0C8
:1024B0002E184E612F587F1C2F50A06BC56AC86A1A
:1024C000854238BF0122E16B0868C0B1E06BC1688A
:1024D000C9684868834214D38E684869CD68B5607E
:1024E000CE688D6875600E1D4568B542B5D1CD6862
:1024F0004560B2E70D6A4560C1E72065C8E74FF067
:10250000FF30A066A06B3549C36AC3EBC305AD00BD
:102510004859022828BF0122E06D20B1012202E0C3
:10252000A06D401CA0651046F0BC704710B42A494D
:10253000486F18B10122CA6510BC7047C8650A6DA2
:10254000DFF87833C2EBC20003EB800400E0521ED8
:1025500054F81C090028FAD0C2EBC20403EB840033
:1025600000F1080443685B684360A34204BFC3688A
:1025700043604068C3688B630A65886B10BC704712
:102580002DE9F041DFF83043A26B0D4602F118014E
:1025900000F0E7F9E66CE76BD4F84080A16B00200F
:1025A00081F84E00A06B001D00F0F5F915F1010F48
:1025B00000D11BE0A06BAD194560B542A06B00D205
:1025C0000EE0011D384600F0CCF9A06E854238BF00
:1025D000A566BDE8F08100004006002058260020D6
:1025E000011D4046BDE8F04100F0BBB9206AA16B77
:1025F00088608268A16BCA60A26B8368111D5960F4
:10260000A16B0A1D826004F11C00A16B4861E069A6
:10261000401CE061BDE8F0812DE9F8430E464168B9
:10262000DFF894521446AA6BD1618B68AA6B1362CF
:10263000AB6B8F6803F118027A60AA6B02F1180382
:102640008B60A96B88620268521C02600CB14FF06B
:10265000FF36EF6CD5F83C80D5F84090A96B002090
:1026600081F84E00AA6B101D00F095F916F1010FCC
:1026700016D1ACB1286AA96B88608268A96BCA6060
:10268000AA6B8368111D5960A96B0A1D826005F150
:102690001C00A96B4861E869401CE861BDE8F18352
:1026A000A86BF6194660BE42A86B05D2011D4846CC
:1026B000BDE8F44300F055B9011D404600F051F962
:1026C000A86E864238BFAE66BDE8F183242700209D
:1026D000F0B4C068C168CB69886A0A6A9A600B6AFC
:1026E000CA695A6001F1180342689A4204BF0A6A33
:1026F000426003685B1E03600022DFF8BC31586F44
:1027000048BB8D684869CC68AC60CD688C686C60EB
:102710000D1D4468AC4204BFCC6844604A61046843
:10272000641E0460C86A1C6D844238BF1865C0EB23
:10273000C004A000DFF88441251D0F1D2D588D60B9
:10274000AE68CE60AE687760AF6025184D612658E0
:10275000761C26500CE05868C86101F118048268A4
:102760000A628268546084601A461868401C1860C7
:102770008A62986BC26AC86A82423DBF0120012109
:10278000D9650020F0BC704704ED00E0DFF82811A7
:102790000A6E0260C96C41607047F8B505460C4688
:1027A00000F039F9DFF81011CA6C6B688F6B97F87D
:1027B0004E00D61A20B1886B002280F84E201AE015
:1027C000206810F1010F12D00F6ED5F800C06745D8
:1027D00005D09A4203D30020012520600CE08642F8
:1027E00007D2861B26600A6E2A60C86C68600025C6
:1027F00002E000202060012500F019F92846F2BD12
:10280000DFF8B4100120C8657047000070B5DFF82C
:10281000B040DFF8A8604FF0805500F009F830684C
:102820000228FAD32560BFF34F8FBFF36F8FF4E711
:1028300070B5DFF89040DFF8805011E000F0EBF861
:10284000E068C668301D00F0A6F8A86C401EA864B9
:10285000686C401E686400F0EAF8304600F004F846
:10286000686C0028EAD170BD10B5044604F130014F
:10287000487F18B9086800F038F801E0012804D151
:102880002046BDE8104000F030B810BDDFF8281039
:10289000CA6B106818B94FF0FF328A667047C86B70
:1028A000C26813688B667047074B036003F15000E2
:1028B00008608021116070474006002058260020E3
:1028C00004ED00E024270020E81F0020002200F093
:1028D0004BBA10B50446FFF71BFD2046FDF74AFC36
:1028E0000446FFF71BFD204610BD10B5040008D0BC
:1028F000FFF70EFD204600F066FABDE81040FFF736
:102900000DBD10BD62F30F2262F31F4200B500BF80
:10291000130096469446103928BFA0E80C50FAD808
:102920005FEA417C28BF0CC048BF40F8042BC907B0
:1029300028BF20F8022B48BF00F8012B00BD00F192
:1029400008014FF0FF3241608260C16000F108026F
:1029500000210261416181610160704700210161D4
:10296000704730B40A6812F1010F08BF036907D03D
:1029700000F1080300E023465C682568AA42FAD209
:102980005A684A6091608B60596008610168491C0F
:10299000016030BC70474368016982689A6083684F
:1029A00042685A604A68824204BF83684B600022D2
:1029B00002610868401E086070470000490849002D
:1029C000A0F10C034FF0807C5960C3F808C00FF2EF
:1029D0000D01196040F8202D20387047BF2080F38A
:1029E0001188BFF34F8FBFF36F8FFEE780B51E488E
:1029F000416841F47F0141600022416841F07F411C
:102A00004160026000F0E2F918490020086000F01F
:102A10001EFA002002BDBF2080F31188BFF34F8F44
:102A2000BFF36F8F11480168491C016070470F495F
:102A30000868401E086008BF80F31188704780B5A1
:102A4000BF2080F31188BFF34F8FBFF36F8FFFF765
:102A5000E4FC18B106494FF080500860002282F370
:102A6000118801BD000000001CED00E0E40500201D
:102A700004ED00E038B586B000F043F9DFF8C85245
:102A8000A8680024B8B10594049403AA04A905A871
:102A9000FFF70AFF05980499029004220092019121
:102AA0000023039A0FF2A8210FF27500FFF7D0FA66
:102AB00000B10124E860204607B030BD70B504467F
:102AC0000D46164604E0A069216A4519204688474C
:102AD000A1692B4632464919204600F0F7F8002834
:102AE000F1D170BDF8B5044697480D460168CA6833
:102AF000D668301DFFF74FFF06F1200738794107F0
:102B000005D52A4621463046FFF7D8FF02E000F0FF
:102B1000FE00387130463968BDE8F44008470000CF
:102B20002DE9F04784B00FF23028DFF82092864F6D
:102B30004FF0805A3968086810B90124002502E076
:102B4000C86805680024FFF7E3FBFFF75DFC064655
:102B50003869864212D300203E6160BBBCB9AE42E8
:102B60001AD3FFF7DBFB31462846FFF7BBFF24E013
:102B7000D06800684FF0FF31FFF7B4FF3A68106883
:102B80000028F5D1786838607A600120E4E7786839
:102B90000168481E8041C40FB8682246A91B00F096
:102BA000A4FAFFF7BBFB40B9C9F800A0BFF34F8FF1
:102BB000BFF36F8F01E0FFF7B1FB98E80E10684696
:102BC00080E80E1006E094F8240080074AD42046DE
:102BD000FFF78BFEB8680022694600F0B3F90028C1
:102BE000A8D00098002803D503990298019A90472D
:102BF00000980028EED4029C606910B1201DFFF7F8
:102C0000CAFEFFF701FC0546386985420DD205E092
:102C1000D06800684FF0FF31FFF764FF3A68106832
:102C20000028F5D1786838607A603D610098401ED0
:102C30000828CFD8DFE800F01D1D1607061D1D1659
:102C40000700C7E7BFE794F8241041F0010184F8BA
:102C500024102B460198A06141192A46204600F015
:102C600035F8B7E794F8240000F0FE0084F824005B
:102C7000B0E794F8240040F0010084F824002A46CC
:102C80000199A0690B464118204600F01FF8002862
:102C9000A0D094F82400410710D50198A6693618F1
:102CA000A16933462A468919204600F00FF848B139
:102CB000A069216A861920468847F1E700F0FE00E6
:102CC00084F824002046216A884783E710B5002451
:102CD0008A424160006107D38169D21A8A4207D2D1
:102CE000194A011D506808E09A4203D2994201D363
:102CF000012404E0011D14480068FFF732FE20465D
:102D000010BD1CB5FFF787FE0F4CA068C0B904F1D9
:102D10001400FFF714FE04F13000FFF710FE04F179
:102D2000140004F13001002220606160009204F17F
:102D30004C0304F1A80210210A2000F0DFF8A06083
:102D4000BDE81340FFF773BE1024002004ED00E03F
:102D5000546D7220537663000000000000000000F4
:102D60000000000000000000401810F0030308D02D
:102D7000C91A1FD3DB0748BF00F8012D28BF20F870
:102D8000022D130030B414461546103928BF20E92F
:102D90003C00FAD8490728BF20E90C0048BF40F89A
:102DA000042D890028BF20F8022D48BF00F8012D0E
:102DB00030BC7047C91818BF00F8012DCB0728BFD9
:102DC00000F8012D7047FEF75FB9000005480021AB
:102DD00001600022826040F2E73343600721016016
:102DE000704700BF10E000E0EFF30980BFF36F8F82
:102DF0001D4B1A6820E9F00F106008B54FF0BF00B6
:102E000080F31188BFF34F8FBFF36F8FFFF78EFBF7
:102E10004FF0000080F31188BDE808401968086889
:102E2000B0E8F00F80F30988BFF36F8F70470E4B47
:102E300019680868B0E8F00F80F30988BFF36F8F56
:102E40004FF0000080F311884EF00D0E70470748D8
:102E50000068006880F3088862B661B6BFF34F8FE0
:102E6000BFF36F8F00DF00007806002008ED00E060
:102E7000F8B5044601260D46002C1CBFE06C002866
:102E800039D04FF0FF31226DB1FBF0F0904232D3D8
:102E9000FFF7C1FD206DE16C226800FB01F3491EC4
:102EA000484310441344A3600027A764E0606260B5
:102EB00004F154004FF0FF310170417085B9206971
:102EC000B0B104F11000FFF703FC88B1DFF878110E
:102ED0004FF080500860BFF34F8FBFF36F8F07E054
:102EE00004F11000FFF72BFD04F12C00FFF727FD84
:102EF000FFF79DFD00E000263046F2BD7CB50025C1
:102F0000002818BF002B0CD00AB109B909E041B95B
:102F1000069C1D46012685F856600095234600F064
:102F200002F8284676BD10B5029C00290CBF24602B
:102F30002260E064216520460121FFF799FF00220D
:102F4000A26510BD2DE9F647064682B08A460024E8
:102F500006F15407DFF8F0804FF0805904E0304666
:102F600000F08DF8FFF7DAF9FFF755FDB56C5DBBA2
:102F7000039800283CD0002C3ED0FFF758FDFFF707
:102F8000C7F9FFF748FD785710F1010F39D097F9CD
:102F9000010010F1010F37D0FFF749FD03A9684682
:102FA000FFF7FBFB002832D0304600F068F8FFF74F
:102FB000B5F9FFF730FDB06C451EAD41FFF737FDA9
:102FC000ED0F002DD0D015E05146304600F044F80A
:102FD0006D1EB564306950B106F11000FFF778FB43
:102FE00028B1C8F80090BFF34F8FBFF36F8F2DE06B
:102FF000FFF71DFD00202CE06846FFF7C7FB01240A
:10300000BBE700203870C2E700217970C4E7FFF702
:1030100002FDB06C451EAD41FFF709FDED0F002D1F
:103020009DD0039906F12C00FFF7AAFA304600F074
:1030300026F8FFF773F9002896D1C8F80090BFF37F
:103040004F8FBFF36F8F8FE704ED00E0FFF7EFFCCA
:10305000012004B0BDE8F08718B4026D0B4662B1E0
:10306000C16884681144C160A14224BF0168C16085
:10307000C168184618BC00F08DB811BC7047F8B58F
:103080000546FFF7C8FC05F1540696F90140012CEE
:1030900010DB706818B1284600F04BF805E0E86ACC
:1030A00040B105F12C00FFF713FB08B1FFF7A8FBB7
:1030B000641EEED14FF0FF377770FFF7B8FCFFF7D3
:1030C000AAFC96F90040012C0ADB286940B105F101
:1030D0001000FFF7FDFA08B1FFF792FB641EF4D170
:1030E0003770BDE8F140FFF7A2BCF8B504460D46C5
:1030F0001646FFF790FC04F1480797F90C0010F111
:10310000010F04BF0021397397F90D0010F1010F71
:1031100004BF00217973FFF78AFC386828B932466A
:10312000294604F12C00FFF777FA2046BDE8F2406B
:10313000A5E7F1B5846DA06CE16C0025884226D22C
:1031400094F95560A76C226D62B16068694600F021
:1031500021F86168206D0844A1686060884224BF3E
:10316000206860607F1C16F1010FA76408D1E06A37
:1031700068B104F12C00FFF7ABFA40B1012506E07D
:10318000FFF747F986423CBF761C84F85560284615
:10319000F2BD000062B38B0708D0521E11F8013B4C
:1031A00000F8013B00F024808B07F6D1830740F044
:1031B000208000BF103A07D330B4B1E83810103A7D
:1031C000A0E83810F9D230BC530724BFB1E808108A
:1031D000A0E8081044BF51F8043B40F8043BD20774
:1031E00024BF31F8022B20F8022B44BF0B78037068
:1031F0007047121F17D35B0009D151F8043B20F828
:10320000023B1B0C121F20F8023BF6D20BE051F8D8
:10321000043B00F8013B1B0A20F8023B1B0C121F69
:1032200000F8013BF3D238BF121D521E24BF11F823
:10323000013B00F8013BF8D87047000080B500F072
:103240006FF800F010F800F027F800F0CBF800F06D
:10325000FCF8FEF755FABDE80050002301220A21D0
:103260000120FEF7CFBE564801220023CA2142703A
:10327000837042720374437501705A22514BDFF818
:1032800048C1827500F111011960821D4F49CCF8C7
:1032900000201530086070474D48016841F0040176
:1032A0000160026842F008020260016841F010010A
:1032B0000160026842F0010202604648016841F480
:1032C00000110160026822F440020260C16841F40A
:1032D0000051C1604048416841F0020141604168CD
:1032E00021F00C014160416841F0200141604168DA
:1032F00021F0C0014160026842F4001202600168DE
:1033000021F440010160026942F0807202610169AA
:1033100041F000710161016941F0200101617047D4
:103320002E48016841F48031016000210268930356
:1033300004D4491C8AB2B2F57A6FF7DB89B2B1F5D1
:103340007A6F05DB016821F480310160012070474C
:10335000416841F4E81141600021026842F0807246
:1033600002600268930104D4491C8AB2B2F57A6FF4
:10337000F7DB89B2B1F57A6F09DB016821F480319E
:103380000160026822F080720260022070471449D6
:103390000A6842F002020A60416841F480614160BB
:1033A000416841F002014160416801F00C010829C7
:1033B000FAD1016849084900016000207047000007
:1033C00058250020441D0020782700207C2700205D
:1033D0001810024004100140000C0140001002408F
:1033E000002002404549086840F4004008600A682F
:1033F000434822F400420A60036843F060630360BC
:10340000026842F0604202603E48036843F40013E1
:1034100003600E23086820F0020008604A689209E1
:1034200092014A60486840F004004860C86920F48E
:103430000040C86140F6FF70CA690243CA610B626E
:10344000086840F00100086070472F48016821F0CB
:1034500070410160026822F070620260016821F42C
:1034600070010160026822F470220260016841F07C
:1034700030410160026842F080620260016841F4FC
:1034800030010160026842F4003202601D480168A8
:1034900041F4804101601D48026842F400720260FC
:1034A000016841F480710160026842F00402026028
:1034B000016841F04001016070470A0009D0144AD8
:1034C00013685FEA036CFBD510F8013B5360491E9B
:1034D000F6D1704770B401460D4B42F2107408E00B
:1034E0005A68C5B2401C4A5500221D68AE06F7D482
:1034F000521CA242F9D370BCC0B2704700540040C5
:10350000000C01401C100240040C01400038004037
:103510000038014038B5454C2046FFF7DBFF042852
:1035200051DDE378A278617842EA032201F00700D6
:103530002378C908AA2B46D10B18032B43DB032899
:1035400041D8DFE800F002415061B2F5807F0ADA2D
:103550003748384B8418481C14F8015B1D715B1CFC
:10356000401EF9D120E0A2F58050B0F5805F0CD26A
:103570003148304BC2F30B040444481C14F8015B7F
:103580001D715B1C401EF9D10EE0A2F54050B0F554
:10359000805F07D2274B481C11241C715B1C401E06
:1035A000FBD101E0EDB275B1CC002248827044F04D
:1035B0000404120AAA234470C2700370491DBDE8B6
:1035C0003440FFF77ABF31BDB2F5807FFBDAD00619
:1035D000F9D5174B9818491C227900F8012B641C67
:1035E000491EF9D131BDB2F5807FECDAD006EAD5BB
:1035F0000F4B9818491C02782379641C1A40491E05
:1036000000F8012BF7D131BDB2F5807FDBDAD006AF
:10361000D9D5074B9818491C02782379641C1A43A2
:10362000491E00F8012BF7D131BD00BF042700204F
:1036300058250020E42600204009002010B5FEF7A0
:10364000A5F800F00BF83548FEF7FCFC42F21074C8
:1036500000F047F82046FEF7F5FCF9E7FEB5304EDE
:10366000304D0024374637F8021B285DFEF7BBF8C3
:10367000641C152CF7DB2F461524718D787DFEF721
:10368000B2F8B61C7F1C641EF7D127492A460720D2
:10369000537D01F8013B947D01F8014BD37D01F886
:1036A000013BD21C401EF3D145F69F6000210190E2
:1036B00000914FF4B4731E223C215A20FEF770F99A
:1036C00005F1560303B005F154024FF4B4704FF402
:1036D0008771508011803C21BDE8F0405A20FEF7F0
:1036E00048BA1249486844F62062904202D2401C0F
:1036F0004860704700224A6008780D4A28B1136874
:1037000043F000531360002004E0106840F40050C0
:1037100010600120087070470000000040420F0058
:10372000481D0020E80500204027002070270020C9
:1037300010100140E0B5FFF781FD00F037F80020E0
:1037400001210190009100235FF0800211A10E4839
:10375000FEF7A9FC002001210190009100238022A6
:103760000EA10A48FEF79FFC002001210190009164
:10377000002380220BA10648FEF795FCFEF782FD90
:10378000002003B000BD0000E93800083D36000805
:103790007D380008636F6E746163740065637261E5
:1037A0006E000000636F6D70617373000F4A104903
:1037B000106840F00100106053680E480B405360E1
:1037C000D2F800C000EA0C0CC2F800C0116821F465
:1037D000802111604FF41F01506820F4FE005060FA
:1037E00091604FF00060044A106070470010024082
:1037F0000000FFF8FFFFF6FE08ED00E030B4002502
:1038000012E050F8042BD30744BF4A44521E091F4C
:10381000042942F8045BFAD213468C0744BF158092
:103820009B1CC90748BF1D7050F8041B0029E8D134
:1038300030BC704710B5074979441831064C7C44B8
:10384000163404E00A68081D114488470146A14265
:10385000F8D110BD0800000024000000A1FFFFFF08
:10386000441E0000400900200000000057DDFFFF5B
:1038700064010000D60800000000002070B542F28C
:103880001074044D044E3168088828802046FEF7E5
:10389000D9FBF8E73C0600207C2700200120C04629
:1038A000002801D0FFF7C6FFAFF300800020AFF380
:1038B0000080FFF73FFF00F000F800F001B80000C3
:1038C00007463846FDF7D2FEFBE7000005480146F3
:1038D00003B4684680F30988AFF30080AFF300803B
:1038E000FFF7DCFFA5EDF5FE10B542F21074FFF70F
:1038F00011FE2046FEF7A6FB00BF00BF00BFF6E7A3
:103900000148804701480047AD370008CD3800081E
:10391000FFF7FEBFFFF7FEBFFFF7FEBFFFF7FEBFDB
:10392000FFF7FEBFFFF7FEBFFFF7FEBFFFF7FEBFCB
:10393000FFF7FEBFFFF7FEBFFFF7FEBFFFF7FEBFBB
:10394000FFF7FEBFFFF7FEBFFFF7FEBFFFF7FEBFAB
:10395000FFF7FEBFFFF7FEBFFFF7FEBFFFF7FEBF9B
:10396000FFF7FEBFFFF7FEBFFFF7FEBFFFF7FEBF8B
:10397000FFF7FEBFFFF7FEBFFFF7FEBFFFF7FEBF7B
:10398000FFF7FEBFFFF7FEBFFFF7FEBFFFF7FEBF6B
:10399000FFF7FEBFFFF7FEBFFFF7FEBFFFF7FEBF5B
:1039A000FFF7FEBFFFF7FEBFFFF7FEBFFFF7FEBF4B
:1039B000FFF7FEBFFFF7FEBFFFF7FEBFFFF7FEBF3B
:1039C000FFF7FEBFFFF7FEBFFFF7FEBFFFF7FEBF2B
:1039D000FFF7FEBF12000112AE0510075C010000E8
:1039E0000B020000B9041007670300001504000073
:1039F000C20410076F0500001C060000C804100771
:103A0000740700001F080000C9041373091810028E
:103A10000A0000C40410076B0B0000120C0000B772
:103A20000410035C0D0000FF041007A20E00004309
:103A30000F0000E304138210381002110000BB04D1
:103A4000100356120000F0041007881300001E1423
:103A50000000B304100346150000D70410036716D6
:103A60000000F5041007821700000C1800009504F0
:103A700010031B190000A0041003231A0000A30464
:103A80001003221B00009F041003191C0000910466
:103A90001003071D00007B0412EC04135B1EA81129
:103AA000041003321F00009A0412FF04136220C89E
:103AB000110413202128110412D40410032A220017
:103AC000007D0412CE04131B2378110412AF0412DC
:103AD000F504100337240000770412B40412EF0435
:103AE000132625581104128C0412BB0412E604108C
:103AF000030F2600003504125804127804129404AF
:103B000012AE0412C50412D90412E90412F704100B
:103B100003022700000904120E0412100411BA2235
:103B20005E0220020000C6FA0242000122040114D3
:103B30000200040A0A4B100300000A0A1F021416AE
:103B40000A040F140E051E04181902040813030CAE
:103B500012140815120D0C047A11581004040808E8
:103B60000804020312020B24020004150EAE100119
:103B700004041F4711015126531F000110020C0CB1
:103B8000000128200910000E11131519110E040C44
:103B90007210180E0E1101010E101F1F02040201F7
:103BA000110E02060A121F02021F101E010E30071C
:103BB0000E11101E11110E1F116B120E0B1103119D
:103BC00004120F1C114F11032104120C6A21591108
:103BD00089216F1171210B1111115B1202D2400D5D
:103BE0000E17191917100E0709111F1111111E03B5
:103BF000115B10041010110E1C12134007121C1F31
:103C000010101E10101F07113820011010176C31F2
:103C100031360E1910010E0702012006120C111286
:103C2000141814123D110130031F111B151101301E
:103C3000011915139E1101220E5F31461711112D26
:103C4000210E10021814130F11300301011E1F045E
:103C50000141354130220A0E20021515150A0B527A
:103C60000A131546352D331F1C6A561C45230701C0
:103C700001120727720001371F086F110110030E90
:103C80001212120DC321E6110E1211E010010101F2
:103C90000F0E19FD14070E111F100E0609081C49FE
:103CA00036004310030E101016191D1604AA11E059
:103CB0002001020006E034050808090A0C0A099CE4
:103CC0001E043D03131A15013300002A214611B6C4
:103CD000330000E219812147211C11A4111C11E1BC
:103CE000231E08611E09A503112933130D07330A8A
:103CF00004071A155731E1210E220F4615F3F00182
:103D00000A081F000165B231D3561EB9461F7B1346
:103D1000060A01571F11B911A5220E04340211021F
:103D20000601572962330A150755B2100103050928
:103D3000017611B245DC310C430E1F1375B9391BE6
:103D400085AB296F315F570404A4221201331F0190
:103D50001C300101011501218511061B0118AA2340
:103D600009095A24011915151B496F22014624051A
:103D70001215151D151512395401050911B2158AB0
:103D800029D8110E1209021557120801130000E27A
:103D9000571F11B9330000E1110E64020106010E34
:103DA0005E470215651213E126132F11E0111C2145
:103DB000E22123961FB231E275B9391B111521E2B8
:103DC000658F23040EE075A41199331F011C1201A5
:103DD0000721DB321F072115331808A81C02111117
:103DE0001D13EF0442080E20010E1107541212E1B8
:103DF0002A121B34030F030D0A1F9D520AC412AA74
:103E0000011006324F43410056110E851DA70333A2
:103E1000101A03780A28454C4C4F0047415244453C
:103E20004E10B8066E8F878B848F0011215115F3C9
:0F3E30006F120001F3FF040001F1FF01F15D01CA
:04000005080038CDEA
:00000001FF
